:020000040800F2
:100000004807002029020008591A00087107000853
:10001000551A0008D505000851210008000000000D
:10002000000000000000000000000000951C000817
:100030000106000800000000711A0008A91D000850
:10004000430200084302000843020008430200087C
:10005000430200084302000843020008430200086C
:10006000430200084302000843020008430200085C
:10007000430200084302000843020008430200084C
:10008000430200084302000843020008430200083C
:10009000430200084302000843020008430200082C
:1000A000430200084302000843020008430200081C
:1000B000430200084302000843020008430200080C
:1000C00043020008430200084302000843020008FC
:1000D00043020008430200084302000843020008EC
:1000E00043020008430200084302000843020008DC
:1000F00043020008430200084302000843020008CC
:1001000043020008430200084302000843020008BB
:1001100043020008430200084302000843020008AB
:10012000430200084302000843020008430200089B
:10013000430200084302000843020008430200088B
:10014000430200084302000843020008430200087B
:10015000430200084302000843020008430200086B
:10016000430200084302000843020008430200085B
:10017000430200084302000843020008430200084B
:10018000430200084302000800F002F800F03CF8C7
:100190000AA090E8000C82448344AAF10107DA45E2
:1001A00001D100F031F8AFF2090EBAE80F0013F0F8
:1001B000010F18BFFB1A43F0010318475439000020
:1001C00074390000103A24BF78C878C1FAD85207B1
:1001D00024BF30C830C144BF04680C6070470000C1
:1001E0000023002400250026103A28BF78C1FBD840
:1001F000520728BF30C148BF0B6070471FB503F0DE
:1002000004FC1FBD10B510BD00F046F81146FFF705
:10021000F5FF02F033FD00F064F803B4FFF7F2FFDE
:1002200003BC02F0B5FC00000948804709480047BC
:10023000FEE7FEE7FEE7FEE7FEE7FEE7FEE7FEE796
:10024000FEE7FEE704480549054A064B70470000F3
:10025000AD1D000889010008480100204807002062
:1002600048030020480300207047704770477047DC
:10027000704710B500F008F8006810BD10B50446CE
:1002800000F002F8046010BD00487047E80000204C
:1002900000487047E80000207546FFF7F9FFAE46BA
:1002A00005006946534620F00700854618B020B582
:1002B000FFF7C8FFBDE820404FF000064FF00007F1
:1002C0004FF000084FF0000B21F00701AC46ACE8FE
:1002D000C009ACE8C009ACE8C009ACE8C0098D466B
:1002E000704710B50446AFF300802046BDE81040CB
:1002F000FFF793BF0EB50121082001F0CBFB0B489F
:1003000001F094FD4FF6FF7001905320ADF800000E
:100310000020ADF80800ADF802006946034801F07E
:100320004DFE0121014801F075FD0EBD000C00409D
:1003300070B505460E4600240BE000BF402106487C
:1003400001F08AFE0028F9D0295D034801F0FCFE87
:10035000641CB442F1DB70BD001401402DE9F84F7C
:1003600005460E4617469846DDE90AAB0024AA2248
:100370002146641C574842542146641C42540222C0
:100380002146641C425400222146641C42540095BC
:100390009DF801202146641C42549DF8002021460E
:1003A000641C425400969DF801202146641C42546E
:1003B0009DF800202046611CCCB246490A540097A3
:1003C0009DF801202046611CCCB242490A549DF898
:1003D00000202046611CCCB23E490A54CDF8008072
:1003E0009DF801202046611CCCB23A490A549DF880
:1003F00000202046611CCCB236490A54CDF800A03A
:100400009DF801202046611CCCB232490A549DF867
:1004100000202046611CCCB22E490A54CDF800B011
:100420009DF801202046611CCCB22A490A549DF84F
:1004300000202046611CCCB226490A540C9800903A
:100440009DF801202046611CCCB222490A549DF837
:1004500000202046611CCCB21E490A540D98009021
:100460009DF801202146601CC4B21A4842549DF8F0
:1004700000202046611CCCB216490A540E98009008
:100480009DF801202046611CCCB212490A549DF807
:1004900000202046611CCCB20E490A54201FC870AF
:1004A0004FF00009002006E00A49095C494401F0C8
:1004B000FF09411CC8B2A042F6DB2046611CCCB249
:1004C000044901F8009021460248FFF731FFBDE8DA
:1004D000F88F0000B500002030B52DED048B81B001
:1004E000B0EE408AF0EE608AB0EE419A0024AA2273
:1004F0002146641C354842542146641C4254012262
:100500002146641C425400222146641C42549FED43
:10051000300A28EE000ABDEEC00A10EE100A00B242
:1005200000909DF801202146641C284842549DF803
:1005300000202146641C42549FED250A28EE800AC3
:10054000BDEEC00A10EE100A00B200909DF8012026
:100550002146641C1D4842549DF800202046611C21
:10056000CCB21A490A549FED1A0A29EE000ABDEED0
:10057000C00A10EE100A00B200909DF8012020463B
:10058000611CCCB211490A549DF800202046611C20
:10059000CCB20E490A54201FC8700025002005E087
:1005A0000A49095C2944CDB2411CC8B2A042F7DB1C
:1005B0002046611CCCB205490D5421460348FFF783
:1005C000B7FE01B0BDEC048B30BD0000B5000020CB
:1005D0000000C84200BFFEE701200249087002493E
:1005E00008707047010000200000002002480078D9
:1005F00002490978084370470100002000000020EC
:100600007047F0B50A4600210023002400BF3DE0FA
:10061000012505FA01F3156805EA03049C4234D16B
:1006200005684F000326BE40B543056015794E00AE
:10063000B5400668354305601579012D02D015795E
:10064000022D16D185684F000326BE40B543856054
:1006500055794E00B540866835438560456801266A
:100660008E40B5434560456896798E40B6B23543B5
:100670004560C5684F000326BE40B543C560D579C7
:100680004E00B540C6683543C560491C1029BFD32C
:10069000F0BDF0B5002300244D07ED0E02FA05F37E
:1006A000CE1000F1200555F826504E07F70E0F2604
:1006B000BE40B543CF1000F1200646F82750CE10BB
:1006C00000F1200555F8265045EA0304CE1000F14C
:1006D000200545F82640F0BD70B501F05FF80446EE
:1006E00002223721D02000F0E5F900226A21D02033
:1006F00000F0E0F96F2002F073FA00F027F80546E9
:1007000014B10DB1012070BD0020FCE7DFED0B0A34
:10071000B0EE600A0A4800680A49086000200849EB
:1007200008600848D0ED000AF8EE600A9FED061A4E
:10073000C0EE811AB0EE610A7047000000000000B0
:10074000240C0040700000200024F44910B5502211
:1007500000213C2000F0AEF9E02201213C2000F015
:10076000A9F9002202213C2000F0A4F9012010BDCB
:1007700000BFFEE721B1028842F48062028004E0FB
:1007800002884FF6FF331A400280704770B5024668
:100790000024002500230020958A138B1B0445EAC2
:1007A000030626F07F4404EA01068E4201D10120AF
:1007B00000E0002070BD21B1028842F001020280F9
:1007C00004E002884FF6FE731A4002807047000072
:1007D0001FB500F023F80020ADF804004BF6FF70C1
:1007E000ADF80600C020ADF808004FF48060ADF809
:1007F0000A000001ADF80C00064800906946064862
:1008000000F06CF801210448FFF7D5FF012004B087
:1008100010BD0000A0860100005400401CB501215D
:10082000022001F027F90121480501F033F94FF4C6
:1008300040700090042208210C48FFF72AFF042290
:1008400009210A48FFF725FF02208DF80400012046
:100850008DF8060000208DF8070002208DF80500B5
:1008600069460248FFF7CDFE1CBD000000040240AF
:1008700021B1028842F48072028004E002884FF6BF
:10088000FF631A400280704721B1028842F400726F
:10089000028004E002884FF6FF531A40028070473E
:1008A0000CB50246002000230193009300920B0F29
:1008B000019321F07F41019B1BB1009B14330093F6
:1008C00003E0090C009B18330093009B1B680B404E
:1008D0000BB1012000E000200CBD00002DE9FF4716
:1008E00004460D460026B1460427DFF8CC80A688D2
:1008F0004FF6C0700640684601F00CF9DDF808803C
:100900002E48B8FBF0F01FFA80F946EA0906A680E7
:1009100020884FF6FE71084020800026284928686C
:1009200088420CD828684000B8FBF0F087B2042F4A
:1009300000DA04273E4309F10100208427E0E8881B
:100940004BF6FF71884206D1286800EB4000B8FBE7
:10095000F0F087B209E0286800EBC00101EB00105D
:10096000B8FBF0F087B247F48047C7F30B0008B933
:1009700047F0010747F4004006434FF4967009FB27
:1009800000F04FF47A7190FBF1F0401C2084A683B4
:10099000208840F00100208026884FF6F530064080
:1009A000A8886989084306432680A88929890843BD
:1009B0002081BDE8FF87000000127A0040420F004E
:1009C000A08601002DE9F04106460F4615461C465B
:1009D00000BF4FF400313248FFF762FF0028F8D122
:1009E00001212F48FFF744FF00BF2E492C48FFF795
:1009F000CDFE0028F9D000223146294800F098F8B1
:100A000000BF29492648FFF7C1FE0028F9D001217F
:100A10002348FFF7D0FE3946214800F091F800BF87
:100A20002149891C1E48FFF7B1FE0028F8D001219A
:100A30001B48FFF71DFF00BF1A491948FFF7A6FE24
:100A40000028F9D001223146154800F071F800BFA6
:100A50001449491C1248FFF799FE0028F8D016E007
:100A6000012C07D100210E48FFF784FE01210C481C
:100A7000FFF70AFF0B493F310948FFF787FE30B106
:100A8000074800F013F828706D1C601E84B2002C1B
:100A9000E6D101210248FFF76DFEBDE8F0810000BC
:100AA0000054004001000300820007000146088A4C
:100AB000C0B2704770B504460E461546012119486C
:100AC000FFF7D6FE00BF18491648FFF75FFE002863
:100AD000F9D000222146134800F02AF800BF13493C
:100AE0001048FFF753FE0028F9D031460D4800F0BA
:100AF00027F800BF0D49891C0A48FFF747FE002868
:100B0000F8D02946074800F01BF800BF0749891CA8
:100B10000448FFF73BFE0028F8D001210148FFF709
:100B2000B3FE70BD005400400100030082000700C6
:100B300012B141F0010101E001F0FE0101827047B4
:100B40000182704700B52DED0A0BADB0FE4890ED67
:100B5000000A20EE000A8DED1D0A90ED000AFB4808
:100B6000D0ED000A20EE200A8DED1C0AF64890ED2B
:100B7000000AF748D0ED000A20EE200A8DED1B0A8E
:100B8000F14890ED000AF348D0ED000A20EE200A6B
:100B90008DED1A0AED4890ED000A20EE000A8DED69
:100BA000190AD0ED000AEA4890ED000A20EE800A0A
:100BB0008DED180AE548D0ED000AE64890ED000AF0
:100BC00020EE800A8DED170AE14890ED000A20EE34
:100BD000000A8DED160A90ED000ADE48D0ED000AFD
:100BE00020EE200A8DED150A90ED000A20EE000A95
:100BF0008DED140A9DED300ADDED310A60EE200A1C
:100C00009DED320A20EE800AB5EEC00AF1EE10FA30
:100C100001D137B000BD9DED330ADDED340A60EE41
:100C2000200A9DED350A20EE800AB5EEC00AF1EEED
:100C300010FA00D1EDE79DED300A20EE000ADDED5F
:100C4000310A00EEA00ADDED320A00EEA00A8DEDB9
:100C50000F0A0F9802F068FECDE910019DED100B10
:100C600001F0A6FE8DED120B9DED120B51EC100B59
:100C700002F068F92C909DED300ADDED2C0A80EE33
:100C8000201A8DED301A9DED310ADDED2C0A80EE33
:100C9000201A8DED311A9DED320ADDED2C0A80EE21
:100CA000201A8DED321A9DED330A20EE000ADDED9B
:100CB000340A00EEA00ADDED350A00EEA00A8DED43
:100CC0000F0A0F9802F030FECDE910019DED100BD8
:100CD00001F06EFE8DED120B9DED120B51EC100B21
:100CE00002F030F92C909DED330ADDED2C0A80EEF8
:100CF000201A8DED331A9DED340ADDED2C0A80EEBD
:100D0000201A8DED341A9DED350ADDED2C0A80EEAA
:100D1000201A8DED351A9DED350AF0EE000A20EE11
:100D2000201A9DED170ADDED1B0A30EE200A21EE98
:100D3000000A8DED0D0A0D9802F0F6FDCDE91001C7
:100D40009DED340AF0EE000A20EE201A9DED180AFF
:100D5000DDED1A0A30EE600A21EE000A8DED090A77
:100D6000099802F0E1FDCDE90C01149802F0DCFDD8
:100D7000CDE90401169802F0D7FD9FED770B53ECF7
:100D8000102BCDE900019DED000B51EC100B02F092
:100D900009FCCDE902019DED040B53EC102B9DEDF8
:100DA000020B51EC100B02F0D5FCCDE908019DEDD2
:100DB000330AF0EE000A20EE200A8DED050A0598B0
:100DC00002F0B2FDCDE906019DED080B53EC102BAE
:100DD0009DED060B51EC100B02F0E6FACDE90A018D
:100DE0009DED0C0B53EC102B9DED0A0B51EC100BF1
:100DF00002F0DAF8CDE90E019DED100B53EC102B4B
:100E00009DED0E0B51EC100B02F0CEF8CDE9120166
:100E10009DED120B51EC100B02F094F82B909DED10
:100E2000350AF0EE000A20EE201A9DED150ADDEDE0
:100E30001C0A30EE600A21EE000A8DED0D0A0D98B5
:100E400002F072FDCDE91001149802F06DFDCDE9BC
:100E50000401199802F068FD9FED3F0B53EC102B35
:100E6000CDE900019DED000B51EC100B02F09AFB57
:100E7000CDE902019DED040B53EC102B9DED020B0F
:100E800051EC100B02F066FCCDE908019DED340A2F
:100E9000F0EE000A20EE200A8DED050A059802F01A
:100EA00043FDCDE906019DED080B53EC102B9DEDA4
:100EB000060B51EC100B02F077FACDE90C019DED19
:100EC000330AF0EE000A20EE201A9DED180ADDED3F
:100ED0001A0A30EE200A21EE000A8DED090A09985F
:100EE00002F022FDCDE90A019DED0C0B53EC102B15
:100EF0009DED0A0B51EC100B02F056F8CDE90E01F6
:100F00009DED100B53EC102B9DED0E0B51EC100BC7
:100F100002F04AF8CDE912019DED120B51EC100BD5
:100F200002F010F82A90169802F0FEFCCDE90801B4
:100F3000199802F0F9FC9FED080B53EC102BCDE94A
:100F400004019DED040B0BE034000020380000206C
:100F50003C00002040000020000000000000E03FB6
:100F600051EC100B02F01EFBCDE906019DED080BC4
:100F700053EC102B9DED060B51EC100B02F0EAFB2D
:100F8000CDE90C019DED350AF0EE000A20EE200AB5
:100F90008DED090A099802F0C7FCCDE90A019DED23
:100FA0000C0B53EC102B9DED0A0B51EC100B02F0C7
:100FB000FBF9CDE910019DED330AF0EE000A20EEB9
:100FC000201A9DED170ADDED1B0A30EE600A21EEB6
:100FD000000ADDED340AB0EE001A60EE811ADDED94
:100FE000150A9DED1C1A70EE810A01EEA00A8DED26
:100FF0000D0A0D9802F098FCCDE90E019DED100B45
:1010000053EC102B9DED0E0B51EC100B01F0CCFFAF
:10101000CDE912019DED120B51EC100B01F092FF86
:1010200029909DED2B0A60EE000A9DED2A0A40EE04
:10103000000ACDED0F0A0F9802F076FCCDE9100101
:101040009DED100B01F0B4FC8DED120B9DED120B1C
:1010500051EC100B01F076FF28909DED290A8DEDE3
:10106000270A9DED170ADDED1B0A70EE600AB0EE4F
:10107000000A20EE800A8DED230A9DED1C0ADDEDAD
:10108000150A30EE200AF0EE000A20EE200A8DED5F
:10109000220A9DED1D0ADDED190A70EE600A9DED34
:1010A000160A70EEC00A9DED140A30EE800A8DED2E
:1010B000210A9DED270AF0EE000A20EE201A9DED90
:1010C000170ADDED1B0A30EE600A21EE000A8DEDF5
:1010D0000D0A0D9802F028FCCDE91001149802F0D9
:1010E00023FCCDE90801169802F01EFC1FED660BEB
:1010F00053EC102BCDE904019DED040B51EC100BCA
:1011000002F050FACDE906019DED080B53EC102BCF
:101110009DED060B51EC100B02F01CFBCDE90C0110
:101120009DED280AF0EE000A20EE200A8DED090A56
:10113000099802F0F9FBCDE90A019DED0C0B53EC87
:10114000102B9DED0A0B51EC100B02F02DF9CDE99F
:101150000E019DED100B53EC102B9DED0E0B51EC81
:10116000100B01F021FFCDE912019DED120B51ECA6
:10117000100B01F0E7FE26909DED280AF0EE000A24
:1011800020EE201A9DED180ADDED1A0A30EE600AF5
:1011900021EE000ADDED270AB0EE001A60EE811A9A
:1011A000DDED1C0A9DED151A70EE810A01EEA00A14
:1011B0008DED250A169802F0B7FBCDE908011998C4
:1011C00002F0B2FB1FED9C0B53EC102BCDE9040198
:1011D0009DED040B51EC100B02F0E4F9CDE9060192
:1011E0009DED080B53EC102B9DED060B51EC100BF5
:1011F00002F0B0FACDE90C019DED270AF0EE000AED
:1012000020EE200A8DED090A099802F08DFBCDE948
:101210000A019DED0C0B53EC102B9DED0A0B51ECCC
:10122000100B02F0C1F8CDE910019DED280AF0EE97
:10123000000A20EE201A9DED1B0ADDED170A30EEA4
:10124000200A21EE000A8DED0D0A0D9802F06CFBCC
:10125000CDE90E019DED100B53EC102B9DED0E0B07
:1012600051EC100B01F0A0FECDE912019DED120B27
:1012700051EC100B01F066FE24909DED310ADDED7E
:10128000210A60EE200A9DED320A9DED221A40EE01
:10129000410A9DED341A9DED240A21EE001ADDED80
:1012A000351A9DED250A01EEC01A30EE810A8DED4A
:1012B000200A9DED320ADDED230A60EE200A9DED45
:1012C000300A9DED211A40EE410A9DED350A9DED53
:1012D000261A60EE011A9DED331A9DED240A41EEA7
:1012E000401A30EEA10A8DED1F0A9DED300ADDEDAA
:1012F000220A60EE200A9DED310A9DED231A40EE90
:10130000410A9DED331A9DED250A61EE001A9DED0F
:10131000341A9DED260A41EE401A30EEA10A8DEDF9
:101320001E0AFE48D0ED000A9DED200AFC4890ED13
:10133000001A40EE010AF948C0ED000AF948D0ED64
:10134000000A9DED1F0AF64890ED001A40EE010AD2
:10135000F448C0ED000AF448D0ED000A9DED1E0AE5
:10136000EF4890ED001A40EE010AEF48C0ED000A88
:101370009DED2D0AED4890ED001ADDED200A01EEFD
:10138000200AE648D0ED000A30EE200A8DED2D0A45
:101390009DED2E0AE54890ED001ADDED1F0A01EEE5
:1013A000200AE048D0ED000A30EE200A8DED2E0A2A
:1013B0009DED2F0ADD4890ED001ADDED1E0A01EECD
:1013C000200AD948D0ED000A30EE200A8DED2F0A10
:1013D000FFF79CF9D64880ED000AD64890ED000A48
:1013E000F1EE400A9DED2D0A20EE800AD24890EDE4
:1013F000001ADDED2E0A01EE600AD04890ED001AC9
:10140000DDED2F0A01EE600AC94890ED001ACC48C4
:10141000D0ED000A40EE010AC0ED000AD0ED000A4E
:101420009DED2D0A20EE800AC34890ED001ADDEDF7
:101430002F0A01EE200AC14890ED001ADDED2E0AB8
:1014400001EE600ABA4890ED001ABA48D0ED000AE1
:1014500040EE010AC0ED000AB948D0ED000A9DED4A
:101460002E0A20EE800AB34890ED001ADDED2F0A17
:1014700001EE600AB14890ED001ADDED2D0A01EE93
:10148000200AAB4890ED001AAB48D0ED000A40EEC0
:10149000010AC0ED000AAA48D0ED000A9DED2F0A0E
:1014A00020EE800AA34890ED001ADDED2E0A01EE31
:1014B000200AA14890ED001ADDED2D0A01EE600A28
:1014C0009B4890ED001A9D48D0ED000A40EE010ABD
:1014D000C0ED000A9A4890ED000A20EE000A9548F7
:1014E000D0ED000A90ED001A00EE810A9248D0ED8E
:1014F000000A90ED001A00EE810A904890ED001A63
:10150000D0ED000A01EE200A8DED0F0A0F9802F0CF
:101510000BFACDE910019DED100B01F049FA8DEDAC
:10152000120B9DED120B51EC100B01F00BFD2C90EA
:101530008348D0ED000A9DED2C0A80EE801A80EDE4
:10154000001A7C48D0ED000A9DED2C0A80EE801A2E
:1015500080ED001A7848D0ED000A9DED2C0A80EE4F
:10156000801A80ED001A7548D0ED000A9DED2C0A16
:1015700080EE801A80ED001A6F4890ED000AF8EEB8
:10158000000A20EE200AD0ED000A20EE200A6B4867
:10159000D0ED000AB0EE001A20EE811AD0ED000A5C
:1015A00001EE600AF7EE000A30EE200A8DED0B0A1C
:1015B0000B9802F0B9F9CDE90E015E4890ED000AF2
:1015C000F0EE000A20EE200A5B48D0ED000A20EE83
:1015D000200A5B48D0ED000AB0EE001A60EE810AE6
:1015E000564890ED001A00EE810A8DED0B0A0B981B
:1015F00002F09AF9CDE90C019DED0E1B9DED0C0B4F
:1016000001F0DEF88DED100B9FED4E0B53EC102B1F
:101610009DED100B51EC100B01F0C6FECDE912014F
:101620009DED120B51EC100B01F08CFC474908604A
:10163000404890ED000AF8EE000A20EE200A3F48EC
:10164000D0ED000A20EE200A3D48D0ED000AB0EEB1
:10165000001A60EE810A384890ED001A00EE810A07
:101660008DED0D0A0D9802F05FF9CDE90E019DEDAB
:101670000E0B00F089FD8DED100B9FED320B53EC3E
:10168000102B9DED100B51EC100B01F08DFECDE9F0
:1016900012019DED120B51EC100B01F053FC2B4984
:1016A00088602448D0ED000AB8EE000A20EE800AD7
:1016B000D0ED000A20EE200A1F48D0ED000AB0EE5F
:1016C000001A60EE810A90ED001A00EEC10AF7EEF2
:1016D000000A30EE200A8DED0B0A0B9802F024F977
:1016E000CDE90E01144890ED000AF0EE000A20EE5C
:1016F000200A1248D0ED000A20EE200A1048D0ED52
:10170000000AB0EE001A60EE810A0A4890ED001A55
:1017100000EE810A8DED0B0A0B9819E044000020C1
:1017200028000020480000204C0000202400002059
:101730002C000020380000203C0000204000002049
:10174000340000206666666666A64C409000002065
:1017500002F0EAF8CDE90C019DED0E1B9DED0C0B9E
:1017600001F02EF88DED100B1FED0A0B53EC102B32
:101770009DED100B51EC100B01F016FECDE912019E
:101780009DED120B51EC100B01F0DCFB024948609F
:1017900000BFFFF73EBA00009000002010B5802285
:1017A0006B21D020FFF786F94FF47A7001F018FA18
:1017B00000226B21D020FFF77DF907221921D020CC
:1017C000FFF778F906221A21D020FFF773F90022DB
:1017D0001C21D020FFF76EF918221B21D020FFF723
:1017E00069F9012010BD00005C480078002858D03D
:1017F0005B48006870B900205A490880488088809A
:1018000059490860594908605949086001205449FC
:101810000860704752480068401C514908605548AC
:10182000B0F900005049096808444F490860514820
:10183000B0F902004D49096808444C4908604D4818
:10184000B0F904004A490968084449490860444815
:101850000068652825D142480068401E404908605C
:1018600041480068096890FBF1F000B23D490880EA
:101870003E4800683A49096890FBF1F000B23949E6
:1018800048803B4800683649096890FBF1F0A0F5B4
:10189000005000B2334988800020314908602F4948
:1018A000087035480078002856D03448006870B970
:1018B00000203349088048808880324908603249D6
:1018C00008603249086001202C490860A1E72B48D4
:1018D0000068401C294908602D48B0F900002949DA
:1018E00009680844274908602948B0F902002649D8
:1018F00009680844244908602548B0F904002349D0
:1019000009680844214908601C480068652823D1FB
:101910001A480068401E194908601A48006809689A
:1019200090FBF1F000B2164908801748006813498F
:10193000096890FBF1F000B2114948801348006833
:101940000E49096890FBF1F000B20D498880002033
:101950000A4908600849087000BF5AE701000020E2
:101960005C000020080000205000002054000020EF
:101970005800002002000020000000206C00002021
:101980001400002060000020640000206800002097
:101990000E0000201FB584B004460E236A463B218A
:1019A000D020FFF70FF89DF801009DF8001040EAE5
:1019B000012026490988401A00B2ADF814009DF8AC
:1019C00003009DF8021040EA012020494988401A8E
:1019D00000B2ADF816009DF805009DF8041040EA2D
:1019E00001201A498988401A00B2ADF818009DF804
:1019F00009009DF8081040EA012015490988401A9D
:101A000000B2ADF81A009DF80B009DF80A1040EAEC
:101A100001200F490988401A00B2ADF81C009DF85A
:101A20000D009DF80C1040EA012009490988401A70
:101A300000B2ADF81E00FFF7D7FE059820600698AB
:101A400060600798A06008B010BD0000080000208A
:101A50001400002000BFFEE7704700000249014368
:101A6000024A1160704700000000FA050CED00E02A
:101A70007047000029B1064A12680243044B1A60FD
:101A800004E0034A12688243014B1A607047000069
:101A90003038024029B1064A12680243044B1A60EA
:101AA00004E0034A12688243014B1A607047000049
:101AB0004038024029B1064A12680243044B1A60BA
:101AC00004E0034A12688243014B1A607047000029
:101AD0002038024029B1064A12680243044B1A60BA
:101AE00004E0034A12688243014B1A607047000009
:101AF0004438024029B1064A12680243044B1A6076
:101B000004E0034A12688243014B1A6070470000E8
:101B100024380240F0B500210022002402250026CE
:101B20000223324F3F6807F00C0121B1042905D090
:101B3000082937D105E02E4F076036E02D4F0760AA
:101B400033E02A4F3F1F3F68C7F38056274F3F1FA0
:101B50003F6807F03F036EB1264FB7FBF3F7DFF89E
:101B60008CC0ACF1040CDCF800C0CCF3881C07FB83
:101B70000CF40CE01E4FB7FBF3F7DFF870C0ACF1CC
:101B8000040CDCF800C0CCF3881C07FB0CF4174FE6
:101B90003F1F3F68C7F301477F1C7D00B4FBF5F78B
:101BA000076002E0124F076000BF00BF0F4F3F68A1
:101BB00007F0F0010909104F7A5C0768D7404760C9
:101BC0000A4F3F6807F4E051890A0B4F7A5C476877
:101BD000D7408760054F3F6807F46041490B064FC7
:101BE0007A5C4768D740C760F0BD00000838024003
:101BF0000024F40000127A007400002017B585B0AC
:101C00000446062301AA03213C20FEF7DBFE9DF8D3
:101C100005009DF8041040EA012000B2ADF818005C
:101C20009DF809009DF8081040EA012000B2ADF8C7
:101C30001A009DF807009DF8061040EA012000B246
:101C4000ADF81C00BDF91800B0F5004F05DBBDF87C
:101C50001800401C00B2ADF81800BDF91A00B0F52C
:101C6000004F05DBBDF81A00401C00B2ADF81A00A9
:101C7000BDF91C00B0F5004F05DBBDF81C00401C91
:101C800000B2ADF81C0006982060BDF81C00A080D2
:101C900008B010BD704700000CB500200190009006
:101CA0003348006840F480303149086000BF304854
:101CB000006800F4003000900198401C01900098EA
:101CC00018B90198B0F5A04FF1D12948006800F487
:101CD000003010B10120009001E000200090009839
:101CE000012844D122484030006840F0805020490B
:101CF000403108601F48006840F440401D490860BA
:101D00001B48083000681A49083108600846006816
:101D100008600846006840F4805008601648091FB3
:101D20000860081F006840F08070091F086000BF4D
:101D30000F48006800F000700028F9D040F20270EF
:101D40000E4908600A480830006820F0030008497E
:101D5000083108600846006840F00200086000BFD3
:101D600003480830006800F00C000828F8D10CBDCA
:101D7000003802400070004008544107003C024017
:101D8000042808D14FF0E021096941F004014FF027
:101D9000E022116107E04FF0E021096921F0040120
:101DA0004FF0E022116170477047000010B51548F0
:101DB000006840F47000134908601348006840F060
:101DC00001001149086000200F49083108600E48E1
:101DD00000680E4908400C4908600D48091D08605C
:101DE000081F006820F48020091F086000200649B1
:101DF0000C310860FFF750FF4FF000600149803957
:101E0000086010BD88ED00E000380240FFFFF6FEDC
:101E10001030002421B1028842F00102028004E067
:101E200002884FF6FE731A400280704710B50446D0
:101E30005548844208D101210846FFF75BFE002186
:101E40000120FFF757FE9DE0B4F1804F08D101213A
:101E50000846FFF72FFE00210120FFF72BFE91E03F
:101E60004A48844208D101210220FFF723FE0021C5
:101E70000220FFF71FFE85E04548844208D101217A
:101E80000420FFF717FE00210420FFF713FE79E07E
:101E90004048844208D101210820FFF70BFE0021B1
:101EA0000820FFF707FE6DE03B48844208D101217E
:101EB0001020FFF7FFFD00211020FFF7FBFD61E080
:101EC0003648844208D101212020FFF7F3FD00218C
:101ED0002020FFF7EFFD55E03148844208D1012171
:101EE0000220FFF707FE00210220FFF703FE49E072
:101EF0002C48844209D101210804FFF7FBFD002191
:101F00004FF48030FFF7F6FD3CE02748844209D1CA
:101F100001214804FFF7EEFD00214FF40030FFF7E8
:101F2000E9FD2FE02148844209D101218804FFF70F
:101F3000E1FD00214FF48020FFF7DCFD22E01C488A
:101F4000844208D101214020FFF7B4FD0021402048
:101F5000FFF7B0FD16E01748844208D10121802028
:101F6000FFF7A8FD00218020FFF7A4FD0AE012483A
:101F7000844207D101218015FFF79CFD0021A015A7
:101F8000FFF798FD10BD0000000001400004004074
:101F900000080040000C0040001000400014004009
:101FA000000401400040014000440140004801405D
:101FB00000180040001C0040002000400022028861
:101FC000184B98420ED0184B98420BD0B0F1804F6E
:101FD00008D0164B984205D0154B984202D0154BAD
:101FE000984204D14FF68F731A404B881A43124B14
:101FF000984207D0114B984204D04FF6FF431A4045
:102000000B891A4302804B68C3620B880385054B1A
:10201000984202D0044B984201D18B7A0386012367
:10202000838270470000014000040140000400402A
:1020300000080040000C0040001000400014004068
:1020400021B1828942F40052828104E082894DF6F6
:10205000FF731A408281704702460020B1F5007F6D
:1020600000D100BF13880B400BB1012000E000201D
:10207000704700002DE9FF4705460E460024A146A3
:1020800000BFA046B08900B100BF2C8A24F44054A0
:10209000F08804432C82AC8941F20C608443B08800
:1020A00031890843718908430443AC81AC8A24F424
:1020B0004074B0890443AC826846FFF72BFD20488A
:1020C000854202D01F48854202D1DDF80C9001E024
:1020D000DDF80890A88900F4004040B109EBC90080
:1020E00000EB091031684900B0FBF1F707E009EB9C
:1020F000C90000EB091031688900B0FBF1F76420DA
:10210000B7FBF0F004012009642101FB1078A889D5
:1021100000F4004040B1322000EBC800B0FBF1F009
:1021200000F00700044308E0322000EB08106421AF
:10213000B0FBF1F000F00F0004432C81BDE8FF87F5
:102140000010014000140140C1F308028280704772
:1021500000BFFEE703B401984100009850EAC12097
:1021600018BF04204A0D18BF40F0010040F2FF7272
:10217000B2EB515F08BF40F00200012808BF052004
:1021800002B070470000000070B5C1482DED020B91
:102190002DED0E8B82B0119D25F000449FEDBEDB2E
:1021A0009FEDBFEB84423EDBA4F140511098A1F1BA
:1021B0007F6108430FD0BC48844202DC28D11098CC
:1021C00030B39DED100B02B0BDEC0E8B02B0BDE83C
:1021D000704000F0A6BC9DED100B53EC1D2B51EC94
:1021E000100B01F0E1F89DED100B41EC180B53ECD6
:1021F0001E2B51EC100B01F0D7F853EC182B00F00C
:10220000D3FE41EC100B02B0BDEC0E8B02B070BDE2
:102210000120FEF733F802B0BDEC0E8B02B0BDE832
:10222000704000F095BCA1489FEDA18B844256DA26
:102230009DED100BB4F1795F0ADA51EC100BFFF74A
:1022400089FF042808BF00F093FC9DED100BDAE72E
:1022500053EC102B51EC100B01F0A6F841EC190BCC
:1022600095480621B0EE490AF0EE690A784400F07C
:10227000DCFB53EC192B51EC100B01F095F841EC01
:102280001A0B8E48B0EE490AF0EE690A0421784430
:1022900000F0CBFB53EC192B51EC100B01F084F840
:1022A00053EC182B00F080FE41EC100B51EC1A0B94
:1022B00053EC102B00F020FFCDE900019DED000B49
:1022C00053EC102B9DED100B51EC100B01F06CF842
:1022D0009DED101B53EC112B00F066FED2E09DED3E
:1022E000100B51EC100B00F0BDFC53EC182B01F05F
:1022F00059F99FED730BCDE9000153EC102B9DEDC7
:10230000000B51EC100B01F04FF841EC190B6E482B
:102310000621B0EE490AF0EE690A784400F085FB28
:1023200053EC192B51EC100B01F03EF841EC1B0B58
:102330006648B0EE490AF0EE690A0421784400F0DC
:1023400074FB53EC192B51EC100B01F02DF853ECEE
:10235000182B00F029FE41EC1C0B51EC190B00F07E
:102360006BFD41EC180B5A489FED5BABA04222DCA1
:1023700053EC1C2B51EC1B0B00F0BEFECDE9000111
:102380009DED000B51EC180B53EC102B01F00CF8E9
:1023900053EC182B00F008FE53EC1A2B01F004F854
:1023A00053EC1D2B01F0D6F953EC1E2B01F0FAF87B
:1023B00041EC100B5FE08DED008B002000909DED57
:1023C000000B51EC180B53EC102B00F0EDFD9DEDC4
:1023D000000B41EC1E0B53EC102B51EC100B00F0DA
:1023E000E3FF53EC192B01F0DDF853EC1E2B00F04A
:1023F00083FE41EC190B53EC1C2B51EC1B0B00F032
:102400007BFE41EC1B0B53EC1A2B51EC190B00F02B
:10241000CBFF53EC1D2B01F0C5F841EC190B53EC2D
:102420001A2B51EC180B00F0BFFF53EC1B2B00F0E4
:10243000BBFF53EC192B01F08DF99DED000B41EC26
:10244000180B53EC1A2B51EC100B00F0ADFF9FED65
:10245000249B53EC192B01F0A5F841EC100B51EC27
:10246000180B53EC102B01F075F953EC192B01F0FC
:1024700099F841EC100B002D3FF7C5AE51EC100B55
:1024800000F054FD41EC100BBDE600000000000020
:102490000000F03F00000000075C143326A6913CCA
:1024A000182D4454FB21F93F0000F07F0000E03F6D
:1024B000000000000000F03FB0170000BE17000051
:1024C000000000000000E03F0217000010170000AD
:1024D0003333EF3F00000000000000000000004028
:1024E000182D4454FB21E93F70B59B482DED020B9C
:1024F0002DED068B079D25F00044A04218DC97487F
:10250000844202DC0AD1069840B19DED060BBDEC79
:10251000068B02B0BDE8704000F003BB002DCCBFBD
:102520009FED8F0B9FED900BBDEC068B02B070BD45
:102530008F48A04215DD8F48A042D8BF4FF0FF342E
:1025400058DD9DED060B51EC100BFFF703FE042840
:1025500008BF00F00DFB9DED060BBDEC068B02B035
:1025600070BD9DED060B51EC100B00F07BFBCDE92F
:10257000060181489FED828BA0423CDD8248A0424B
:102580001FDD00249FED82AB9DED060B53EC1A2B53
:1025900051EC100B00F008FD9DED060B41EC190B02
:1025A00053EC1A2B51EC100B00F0FEFE53EC182BE1
:1025B00001F0D0F853EC192B00F09EFDCDE9060197
:1025C00049E09DED060B012453EC182B51EC100B48
:1025D00000F0EAFC9DED060B41EC190B53EC182BB7
:1025E00051EC100B01F0B6F853EC192B00F084FD00
:1025F000CDE906012FE06848A0421FDD02249FEDCF
:10260000689B9DED060B53EC192B51EC100B00F061
:10261000CBFE53EC182B00F0C7FC9DED060B41ECF4
:10262000180B53EC192B51EC100B01F093F853ECF1
:10263000182B00F061FDCDE906010CE09DED060BC5
:10264000032453EC102B9FED580B51EC100B00F0B2
:1026500053FDCDE906019DED060B53EC102B51EC1B
:10266000100B00F0A1FE41EC180B53EC182B00F0FE
:102670009BFE41EC190B4E480621B0EE490AF0EEE4
:10268000690A784400F0D1F953EC182B51EC100B87
:1026900000F08AFE41EC180B4648B0EE490AF0EE15
:1026A000690A0521784400F0C0F953EC192B51EC6C
:1026B000100B00F079FE41EC100B51EC180B53ECB1
:1026C000102B002C0EDA00F06FFC9DED061B53EC76
:1026D000112B00F069FE9DED061B53EC112B00F051
:1026E00061FF35E000F060FC9DED061B53EC112B03
:1026F00000F05AFE41EC100B2F48784400EBC40068
:1027000090ED001B51EC100B53EC112B01F022F853
:102710009DED061B53EC112B01F01CF841EC100B46
:102720002648784400EBC40090ED001B51EC100BE0
:1027300053EC112B00F036FF41EC100B002DA2BF23
:10274000BDEC068B02B070BD51EC100B00F0EEFB3F
:1027500041EC100B01E70000000010440000F07F86
:10276000182D4454FB21F93F182D4454FB21F9BF87
:102770000000DC3F0000203E0000F33F00000000AE
:10278000000000000000F03F0000E63F00000000F5
:102790000000000000000040008003400000000036
:1027A000000000000000F83F000000000000F0BF43
:1027B0005214000008140000921300004A13000095
:1027C00070B56B4E2DED040B2DED028B82B0DDF854
:1027D0001CC0DDE905235C422CF000411C4341EAAA
:1027E000D474049D22F00040B44205D86C422C43BE
:1027F00040EAD474B4420BD99DED061B9DED040B49
:1028000002B0BDEC028B04B0BDE8704000F093B99B
:10281000ACF14054A4F17F641C430BD0022404EAC1
:10282000AC7444EAD27405439FED538B9FED542B57
:1028300007D015E09DED040B51EC100B00F0AAF948
:1028400042E0002C11BF012C9DED040B02B0BDEC49
:10285000028B04BF04B070BD022C38D0032C3BD0D7
:102860000B439FED491B9FED4A0B0AD0B14218D193
:10287000B04209D121F0804120F0804007910590BD
:102880000FE0002A15DA10E0434B7B44002C08BF10
:1028900093ED000B0DD0012C10D0022C17D0032C7F
:1028A0001AD0B0421DD1002A03DAB0EE410AF0EE90
:1028B000610A02B0BDEC028B04B070BD93ED000B59
:1028C00051EC100B00F032FB41EC100BF1E7B0EED5
:1028D000480AF0EE680AECE7B0EE420AF0EE620A4F
:1028E000E7E7401A00153C28C8BF8DED000B19DC46
:1028F000BCF1000FBEBF10F13C0F9FED290B8DED19
:10290000000B0FDB9DED060B53EC102B9DED040B24
:1029100051EC100B00F0F0FB00F0A4F900F03AF9D4
:10292000CDE90001002C08BF9DED000BC1D0012CAA
:1029300010D0022C9FED1C0B53EC102B9DED000BC7
:1029400051EC100B0DD000F005FF53EC182B00F0EC
:1029500001FFB9E7019880F0004001909DED000B68
:10296000A7E700F0F7FE53EC182B00F01BFEABE7D7
:102970000000F07F00000000182D4454FB210940A6
:10298000182D4454FB2109C0182D4454FB21F9BFD4
:10299000182D4454FB21F93F7A120000000000007A
:1029A0000000000000000000075C143326A6A13CD4
:1029B00000B52DED048BB0EE409AF0EE609A83B036
:1029C00051EC190B00F0FAFD41EC180B18EE100A4F
:1029D00018EE901A8DED008B002818BF01200843D7
:1029E00020F00040C0F17F6000F1E040C00F14D043
:1029F00019EE101A19EE900A8DED009B002918BFF0
:102A00000121084320F00040C0F17F6000F1E04068
:102A1000C00F04BF0120FDF731FCB0EE480A03B03F
:102A2000F0EE680ABDEC048B00BD70B504462DEDD8
:102A3000028B4D1E00EBC500B0EE408AF0EE608ABE
:102A400090ED000B35F0060017D053EC182B51EC2D
:102A5000100B00F0A9FC41EC100B6D1E04EBC5003F
:102A600090ED001B51EC100B53EC112B00F09CFA75
:102A700041EC100B35F00600E7D1022D36D0042DC5
:102A80001CD0062D1CBFBDEC028B70BD53EC182B67
:102A900051EC100B00F088FC94ED0A1B53EC112B49
:102AA00000F082FA53EC182B00F07EFC94ED081B2A
:102AB00053EC112B00F078FA41EC100B53EC182B6F
:102AC00051EC100B00F070FC94ED061B53EC112B35
:102AD00000F06AFA53EC182B00F066FC94ED040B3E
:102AE00053EC102B00F060FA41EC100B53EC182B58
:102AF00051EC100B00F058FC94ED021B53EC112B21
:102B000000F052FA53EC182B00F04EFC94ED001B31
:102B100053EC112B00F048FABDEC028B41EC100B8A
:102B200070BD10B553EC102B51EC100B00F03CFABB
:102B300041EC100B10BD10B553EC112B51EC100BE8
:102B400000F032FA41EC100B10BD00000000000054
:102B50009FED050B10B553EC102B51EC100B00F052
:102B6000CBFA41EC100B10BD00000000000000008B
:102B70009FED050B10B553EC102B51EC100B00F032
:102B800013FC41EC100B10BD000000000000001011
:102B900000BF704710B541EC100BFFF7A5FC51ECDE
:102BA000100B10BD10B504466FF00400FFF7E8F8F5
:102BB000E11704EB5171C1F3C701074A11701046C8
:102BC000007800EB4001C1EBC0104FF6FF7101EA45
:102BD000C0000249088010BD200000202200002013
:102BE00070B504464FF4077094FBF0F0C6B24FF492
:102BF000077094FBF0F100FB114085B205E04FF443
:102C0000077000F009F8701EC6B2002EF7D115B19A
:102C1000284600F001F870BD0146114A12884A4367
:102C20004FF0E0235A6100229A611A46126942F07D
:102C300001021A6100BF4FF0E022106900F00102AA
:102C40001AB100F48032002AF5D04FF0E022126968
:102C500022F001024FF0E0231A6100229A617047CE
:102C60002200002082B0CDE9000121F00040019057
:102C70009DED000B02B051EC100B704770B586B0A3
:102C80004FF4A060FEF7EAFEA820FFF78BFF4FF499
:102C9000E13000F009F9FDF72DFBFDF799FD044641
:102CA000FDF71AFD0546FDF797FCB6E05E480168A2
:102CB00002918088ADF80C0004A8039AFEF79EFFED
:102CC000594804990160BDF8141081805748016883
:102CD000009141680191806803460A46029003A86A
:102CE0000099FEF757FE514803990160049941602D
:102CF00005998160FDF77AFC00287CD14A48B0F93B
:102D000004004949B1F90210474AB2F90020474B83
:102D1000B3F90A30CDE90132CDE903104348B0F9E7
:102D20000800424E0090B6F90630B6F90420B6F914
:102D30000210B6F90000FDF711FB3B48B0F90400A2
:102D400004EE900AF8EEE44AB0EE644A3648B0F970
:102D5000020004EE900AF8EEE44AF0EE643A3248DB
:102D6000B0F9000004EE900AF8EEE44AB0EE643ADE
:102D70003046B0F9040004EE900AF8EEE44AF0EEB2
:102D8000642A3046B0F9020004EE900AF8EEE44AF4
:102D9000B0EE642A3046B0F9000004EE900AF8EE76
:102DA000E44AF0EE641A3046B0F90A0004EE900AE4
:102DB000F8EEE44A9FED1E5A64EE854AB0EE641ABE
:102DC0003046B0F9080004EE900AF8EEE44A9FEDB0
:102DD000185A64EE854AF0EE640A3046B0F90600EF
:102DE00004EE900AF8EEE44A9FED115A64EE854A2B
:102DF000B0EE640A00E010E0FDF7A4FE0D48D0ED4F
:102E0000001AB0EE611AD0ED021AF0EE610AD0EDB0
:102E1000011AB0EE610AFDF75FFB14B1002D7FF4DB
:102E200045AF002006B070BD1A0000209C000020B5
:102E300089A18B3A9000002000B52DED048B83B062
:102E400041EC190B00F0BAFB41EC180B18EE100A1C
:102E500018EE901A8DED008B002818BF0120084352
:102E600020F00040C0F17F6000F1E040C00F14D0BE
:102E700019EE101A19EE900A8DED009B002918BF6B
:102E80000121084320F00040C0F17F6000F1E040E4
:102E9000C00F04BF0120FDF7F1F951EC180B03B08E
:102EA000BDEC048B00BD000010B586B004460121C6
:102EB0000420FEF7DFFD01212020FEF70BFE082293
:102EC00006211848FDF7E5FB082207211548FDF704
:102ED000E0FBC020049002208DF814008DF815004E
:102EE00000208DF8160001208DF8170004A90D4868
:102EF000FDF787FB00940020ADF80400ADF8060054
:102F0000ADF80800ADF80C000C20ADF80A006946D9
:102F10000548FFF7AFF801210348FFF791F806B025
:102F200010BD0000000802400014014081F0004183
:102F3000704780F00040704721F00041704720F05A
:102F40000040704721F00042A2F16052B2F5801FAC
:102F500001F0004328BFD2F17F6C0BD95FEA001C5F
:102F600043EAC20242EB507018BF704728BF20F0FE
:102F700001007047B2F5801FBCBF184670474FEA8A
:102F8000410C1CF5001F02D2084600F043BD70B58D
:102F900000F0B4FA00000089FFF7F6BF4FF00040E0
:102FA000A0F580007047000010B591EA030F48BFFC
:102FB00083F0004300F1D683841A71EB030C05D231
:102FC000121943EB0C03001B61EB0C01DFF824E149
:102FD0004FEA1154A4EB135C1EEA430F18BF9EEA9C
:102FE000445F73D023EA0E03DCF1200E21EA045182
:102FF00043F4801332D322FA0CFE10EB0E0023FAB6
:103000000CFE41EB0E01CCF1200E03FA0EFE10EB8C
:103010000E0051F10001B1F5801FCCF1200E32D22B
:1030200001EB045112FA0EF2BDE8104058BF704790
:10303000401C38BF5FEA420218BF7047002814BF27
:1030400020F0010041F100014FEA410313F5001F98
:1030500038BF7047A1F1C04100F09EBA012A43EB8E
:103060000302ACF1200CDCF11F0E32BF4FF0000E5A
:1030700023FA0CF310EB030041EB0451B4EB115FA6
:10308000D0D0A1EB045101F5801149085FEA30006E
:1030900001EB04510ED350F1000038BF12FA0EFEBE
:1030A00008D1BDE81040C9E7401C38BF5FEA4202C2
:1030B000CAD1C3E7BDE810404FEA410313F5001F32
:1030C00038BF7047A1F1C04100F066BA9EEA445F84
:1030D00008D011EA5E0FBDE8104004BF01F00041C6
:1030E00000207047BDE8104070B500F007FA00BF3F
:1030F00064FBBE3E0000E0FF2DE9C04130B4DFF8C4
:10310000A0C23CEA111418BF3CEA131400F0EC8092
:1031100081EA03051CEA111444EAD57418BF1CEABD
:10312000131500F0C780A4EB05044FF0004545EAF5
:10313000C12145EAC32341EA505143EA525304F105
:103140007F74994204F500344FEAC0204FEAC2224E
:1031500008BF904200F09C804FEA13650FF24016C2
:10316000765D4FEA134506FB05F7C7F1807706FB4E
:1031700007F74FEAD737A7FB03687642C8F58038D0
:10318000A7FB06CE38BFA8F1010807FB08E64FF001
:10319000000EA6FB028CE6FB03CEDCF1000CCEF1A8
:1031A000004E38BFAEF1010EA6FB0C584FF00007E1
:1031B0004FF00005E6FB0E87A1FB08C6A0FB07CE7B
:1031C00016EB0E0645F10005E1FB076515F1E04E33
:1031D0007EBFA4F580345FEA46066D4116F1800794
:1031E00045F100054FEA17274FEA066647EA0567EB
:1031F000A6F1DE46B6F1805F4FEA15251FD93846A5
:1032000024F0010C05EBC471BCF1FE6F01EB0C1155
:1032100002D8F0BCBDE8008124425CBF01F5801EED
:103220009EEAC47F02D4F0BCBDE80081244238D4B9
:10323000F0BCA1F1C041BDE8004100F0ADB94FEADA
:10324000D22242EA43524FEAD323A7FB02864FEA37
:10325000D02040EA415007FB03661EEA0E0F4FEAFA
:10326000D12105FB026658BFA6EB0056B6EB00560F
:103270004FEA520E4EEAC37E18EB0E0E56EB530E7B
:10328000BDD518EB02085E417F1C55F10005B6E77D
:103290004FF480154FF000074FF000064FF0000884
:1032A000ADE7F0BC4FF0000001F1C04101F000417A
:1032B000BDE8008111EA0C1F0CEA131500D00CE0E8
:1032C00013EA0C1F00F025804FF00000F0BC81EAEB
:1032D000030101F00041BDE80081F0BCBDE8004100
:1032E00081EA030100F058B9F0BCBDE8004170B5B7
:1032F00000F004F9097EFC3E00F007B881EA030102
:103300004FF0000001F00041704781EA030100F036
:1033100043B9F0BCBDE800414FF0000021497047BF
:10332000FFFDFBF9F7F5F4F2F0EEEDEBE9E8E6E48A
:10333000E3E1E0DEDDDBDAD8D7D5D4D3D1D0CFCD11
:10334000CCCBCAC8C7C6C5C4C2C1C0BFBEBDBCBB4A
:10335000BAB9B8B7B6B5B4B3B2B1B0AFAEADACAB45
:10336000AAA9A8A8A7A6A5A4A3A3A2A1A09F9F9E1F
:103370009D9C9C9B9A9999989797969595949393D1
:10338000929191908F8F8E8E8D8C8C8B8B8A898968
:1033900088888787868585848483838282818180EB
:1033A0000000FF070000F87FDFF848C170B51CEA95
:1033B000111E1EBF1CEA13159EEA0C0F95EA0C0F96
:1033C00000F06F8081EA030423EA4C134EEAD47EB6
:1033D00021EA4C1141F4801143F48013AE44A1FB67
:1033E000024CA0FB0365AEF17F7E361955EB0C0550
:1033F000A1FB034C4CF10003A0FB021C16EB0C06D6
:10340000654153F10003094218BF46F0010613F469
:10341000007F0BD14FEA03314FEA0530340341EA14
:10342000155140EA16506FF003020AE04FEAC3213B
:103430004FEAC520F40241EA555140EA56506FF078
:10344000020202EB2E4201EB025585EACE710AD050
:103450005FEA440C18BF24F0004450F1000041F131
:10346000000120EAD47040F2FE7C624500D270BDBB
:10347000A84214BF4FF080444FF04044002E08BFD4
:103480000024BEF1806FA8BFA1F1C041BDE870402B
:1034900080F282804FF0000001F1C04101F0004154
:1034A00070479EEA0C0F0CEA131518BF95EA0C0F33
:1034B00006D04FF0000081EA030E0EF0004170BD0F
:1034C00000F01CF88900013E00F007B800F009B8D0
:1034D0004FEA430C5FEA5C5C08D081EA030100F02C
:1034E0005BB84FEA410C5FEA5C5CF6D14FF000003C
:1034F000014970470000FF070000F87F0EF1020E3F
:103500002EF0030E5EF8046B364205D4012A43EB1D
:10351000030515F5001F12D8012841EB010C1CF51D
:10352000001F0CD80ED14FEAD17C15F5001F0CEB13
:103530004C0C0CF1020C08BF4CEBD37C04E04FF0B8
:10354000080C01E04FEAD37C0CEB4C0526FA05F69B
:1035500006F00706B6F1040C06D20EEB860CBDE8A9
:1035600070404CF0010C6047DFE80CF0090B0202E0
:103570004FF000414FF00000A1F5002170BD194649
:103580001046012851EB010418BFD4F5001484BF84
:10359000002001F0004170BD0808A0F500114FEABD
:1035A0003101704791EA030F10B581F000413FF5FA
:1035B00003AD83F0004300F0D5B800002DE9F041E1
:1035C00001F5801CBCF5001FC0F2A9804FEA115C18
:1035D00021EA0C510CF1FD0C41F480115FEA5C0C06
:1035E0000CF5C07C01D34000494130A4890241EA76
:1035F000905187028E0E0A0CA45D04FB04F602FBB8
:1036000006F6C6F14046A4FB0662F60D46EA4226DF
:1036100006FB06F4A4FB01235242C3F1404338BF2A
:103620005B1EA6FB02420024E6FB0324D20B42EA07
:103630004446A6FB0623A1FB02E2A3FB07E4E3FB4F
:1036400061426442C2F1404E38BFAEF1010EA6FBAA
:1036500004234FF00002E6FB0E32A2FB03463400C7
:10366000E2FB6264A1FB06E6A4FB07E8E4FB6168F9
:103670007642C8F1405838BFA8F10108A2FB06E421
:10368000A3FB08E5E2FB6854A1FB05E6A7FB04E801
:10369000E1FB648618F1200556F10006A809A8F19F
:1036A0001B08B10908F03F08B8F10A0F40EA86602C
:1036B0001CD901EB0C51BDE8F08100BFFCF5EEE830
:1036C000E2DDD8D3CFCBC7C3C0BDB9B6B4B1AEACC1
:1036D000A9A7A5A3A19F9D9B9A9896959392908F39
:1036E0008D8C8B898887868584838281A0FB006886
:1036F00000FB01F208EB4208B8EB872807D5341825
:1037000058EB0104D5D5401C51F10001D1E7341A22
:1037100078EB0104CDD4401E71F10001C9E75FEAE6
:103720004C0C5FEA9C5C0DD105D34FF0000001F01A
:103730000041BDE8F081BDE8F04170B5FFF7DEFE65
:103740006DDBFFBEBDE8F0414FF00000004970475F
:103750000000F87F10B591EA030F48BF83F00043E3
:103760003FF52AAC841A71EB030C07D212198CF0C6
:10377000004C43EB0C03001B61EB0C01DFF8A4E1F0
:103780004FEA1154A4EB135C1EEA430F18BF9EEAE4
:10379000445F00F0B08023EA6E03524221EA0451F4
:1037A000C3EB6E0338BF5B1EDCF1200E25D322FA7B
:1037B0000CFE10EB0E0043FA0CFE41EB0E01CCF1B7
:1037C000200E03FA0EFE10EB0E0051F10001CCF1B9
:1037D000200E29D412FA0EF201EB0451BDE810407C
:1037E00058BF7047401C1CBFB2F1004F7047002803
:1037F0000CBF491C20F00100704712EB020E43EB96
:10380000030218BF4FF0010E4EEA4202ACF1200C49
:10381000DCF11E0E54D943FA0CFE10EB0E0051F1F0
:10382000FF31CCF11E0ED5D50EF1010E12FA0EFEAF
:10383000404141EB010101EB445C5FEA5C5C10D963
:1038400010EBDE7001EB045138BFBEF1004FBDE854
:10385000104018BF704700280CBF491C20F0010021
:10386000704730D24FEAD42C11F5001124F40064D3
:103870001BD0B1FA81F20B3AA41AA41ED2F1200394
:10388000914030FA03F31943904001EBCC71002CC6
:1038900001EB0451BDE81040A8BF704701F1C041E1
:1038A0004FF0000001F000417047B0FA80F310FAC9
:1038B00003F100D110BDE41A173C4805C90AE4E73A
:1038C00001EB045110BD491001EB0451BDE810405B
:1038D0004FEA300002E04FF0000170474A0008BF95
:1038E0000042F8D0B2F5001F28BF704701F0004138
:1038F0004FF0000070479EEA445F07D011EA5E0F68
:10390000BDE8104004BF002100207047BDE8104012
:1039100070B5FFF7F3FD00BF40DFF63E83F00041D6
:10392000104670470000E0FF43004FEAD30C4FEA17
:103930003C0C43401FBF40070CF1605113F0FE4F99
:1039400070471CF0006F03D100200CF0004170475D
:103950000CF0004343EA507010B540EACC0000F090
:103960000EF800BF000000924FEA0001FFF714BEFE
:103970004FF000414FF00000A1F5002170470EF11B
:10398000020E2EF0030E5EF8044B244204D44FEADC
:103990004102B2F17F4F11D84FEA4003B3F17F4F9C
:1039A0000CD80ED14FEAD07CB2F17F4F0CEB4C0C0F
:1039B0000CF1020C08BF4CEBD17C04E04FF0080C7A
:1039C00001E04FEAD17C0CEB4C0324FA03F404F041
:1039D0000704B4F1040C06D20EEB840CBDE81040D1
:1039E0004CF0010C6047DFE80CF0070802024FF0D2
:1039F0000040A0F5800010BD0846420018BFD2F17B
:103A0000807288BF00F0004010BD4FF04070E1EEC2
:103A1000100A7047FF2141EAD050C00570470000EE
:103A2000555555555555C53F7D6FEB0312D6D4BF3F
:103A30005544880E55C1C93F3B8F68B52882A4BF45
:103A400088B20175E0EF493F09F7FD0DE13D023F06
:103A50004B2D8A1C273A03C0C88A599CE52A00408E
:103A600059018D1B6C06E6BF82922EB1C5B8B33FDB
:103A70004FBB610567ACDD3F182D4454FB21E93F86
:103A80009BF681D20B73EF3F182D4454FB21F93F75
:103A9000E2652F227F2B7A3C075C143326A6813CFB
:103AA000BDCBF07A8807703C075C143326A6913CA6
:103AB000C4EB98999999C9BF711623FEC671BCBF12
:103AC0006D9A74AFF2B0B3BF9AFDDE522DDEADBF7A
:103AD0002F6C6A2C44B4A2BF0D5555555555D53F92
:103AE000FF8300922449C23F6E204CC5CD45B73FAD
:103AF000513DD0A0660DB13FEB0D76244B7BA93F25
:103B000011DA22E33AAD903F00000000000000000F
:103B1000303B00080000002084000000C4010008C1
:103B2000B43B000884000020C4060000E001000847
:103B30000000000000000000000000000000000085
:103B40000000000000000000000000000000000075
:103B5000000000000000003F6F12033B6F12033AA9
:103B60006F12833A0000803F000000000000000058
:103B70000000000000000000000000000000000045
:103B80000000000000000000000000000000000035
:103B90000000000000000000000000000000000025
:103BA0000000000000000000010203040102030401
:043BB00006070809F3
:040000050800018965
:00000001FF
