:020000040800F2
:10000000C03C002075020008C1220008FF0B000858
:10001000311F000813070008154400080000000005
:10002000000000000000000000000000A93A0008E5
:1000300095070008000000001D390008C13B0008BA
:100040008F0200088F0200088F0200088F0200084C
:100050008F0200088F0200088F0200088F0200083C
:100060008F0200088F0200088F0200088F0200082C
:100070008F0200088F0200088F0200088F0200081C
:100080008F0200088F0200088F02000800000000A5
:100090000000000000000000000000008F020008C7
:1000A0008F0200088F0200088F0200088F020008EC
:1000B0008F0200088F0200088F0200088F020008DC
:1000C0008F0200088F0200088F0200088F020008CC
:1000D0008F0200088F0200088F0200080000000055
:1000E0008F0200088F0200088F0200080000000045
:1000F0000000000000000000000000008F02000867
:10010000000000008F0200088F0200088F02000824
:1001100000000000000000000000000000000000DF
:100120008F0200088F0200088F0200088F0200086B
:100130008F02000800000000000000000000000026
:100140000000000000000000000000008F02000816
:100150008F0200088F0200088F0200088F0200083B
:100160008F0200088F02000800000000000000005D
:10017000000000000000000000000000000000007F
:10018000000000008F0200080000000000000000D6
:100190008F02000800F002F800F05CF80AA090E876
:1001A000000C82448344AAF10107DA4501D100F032
:1001B00051F8AFF2090EBAE80F0013F0010F18BFA3
:1001C000FB1A43F001031847285A0000485A000060
:1001D0000A444FF0000C10F8013B13F0070408BF6D
:1001E00010F8014B1D1108BF10F8015B641E05D00B
:1001F00010F8016B641E01F8016BF9D113F0080FC0
:100200001EBF10F8014BAD1C0C1B09D16D1E58BF51
:1002100001F801CBFAD505E014F8016B01F8016B88
:100220006D1EF9D59142D6D37047000000230024FB
:1002300000250026103A28BF78C1FBD8520728BFF6
:1002400030C148BF0B6070471FB505F0CEFB1FBD26
:1002500010B510BD00F098F81146FFF7F5FF04F057
:100260000BFE00F0B6F803B4FFF7F2FF03BC00F09A
:10027000B9F800000948804709480047FEE7FEE753
:10028000FEE7FEE7FEE7FEE7FEE7FEE7FEE7FEE746
:1002900004480549054A064B70470000253C000804
:1002A00095010008C0360020C03C0020C038002066
:1002B000C0380020EFF3108072B6704780F31088CA
:1002C00070471E484FF0FF0101604FF0000080F3BF
:1002D00009881B484FF0010101601A484FF0805116
:1002E000016062B617484FF08051016070471548B1
:1002F0004FF080510160704772B6EFF3098020B172
:1003000020E9F00F10490968086000B50F488047E0
:100310005DF804EB0E480C49006808600D480E4972
:10032000007808700A4800680168B1E8F00F81F3AE
:1003300009884EF0040E62B6704700BF22ED00E05F
:100340003101002004ED00E038010020CD2B000831
:10035000400100202701002026010020704770473F
:10036000704710B500F008F8006810BD10B50446DD
:1003700000F002F8046010BD0048704760360020AD
:1003800000487047603600207546FFF7F9FFAE461B
:1003900005006946534620F00700854618B020B591
:1003A000FFF776FFBDE820404FF000064FF0000752
:1003B0004FF000084FF0000B21F00701AC46ACE80D
:1003C000C009ACE8C009ACE8C009ACE8C0098D467A
:1003D000704710B50446AFF300802046BDE81040DA
:1003E000FFF741BF01491820ABBEFEE7260002001F
:1003F00070470EB50121084603F0A2FA4FF0804085
:1004000003F0E2FC4FF6FF7001905320ADF80000BE
:100410000020ADF80800ADF8020069464FF08040BA
:1004200003F006FE0121880703F0C1FC0EBD0000A9
:1004300070B505460E4600240BE000BF402106487B
:1004400003F06CFF0028F9D0295D034803F0DEFFBC
:10045000641CB442F1DB70BD001401402DE9F84F7B
:1004600005460E4617469846DDE90AAB0024AA2247
:100470002146641C574842542146641C42540222BF
:100480002146641C425400222146641C42540095BB
:100490009DF801202146641C42549DF8002021460D
:1004A000641C425400969DF801202146641C42546D
:1004B0009DF800202046611CCCB246490A540097A2
:1004C0009DF801202046611CCCB242490A549DF897
:1004D00000202046611CCCB23E490A54CDF8008071
:1004E0009DF801202046611CCCB23A490A549DF87F
:1004F00000202046611CCCB236490A54CDF800A039
:100500009DF801202046611CCCB232490A549DF866
:1005100000202046611CCCB22E490A54CDF800B010
:100520009DF801202046611CCCB22A490A549DF84E
:1005300000202046611CCCB226490A540C98009039
:100540009DF801202046611CCCB222490A549DF836
:1005500000202046611CCCB21E490A540D98009020
:100560009DF801202146601CC4B21A4842549DF8EF
:1005700000202046611CCCB216490A540E98009007
:100580009DF801202046611CCCB212490A549DF806
:1005900000202046611CCCB20E490A54201FC870AE
:1005A0004FF00009002006E00A49095C494401F0C7
:1005B000FF09411CC8B2A042F6DB2046611CCCB248
:1005C000044901F8009021460248FFF731FFBDE8D9
:1005D000F88F0000552A002030B52DED048B81B036
:1005E000B0EE408AF0EE608AB0EE419A0024AA2272
:1005F0002146641C354842542146641C4254012261
:100600002146641C425400222146641C42549FED42
:10061000300A28EE000ABDEEC00A10EE100A00B241
:1006200000909DF801202146641C284842549DF802
:1006300000202146641C42549FED250A28EE800AC2
:10064000BDEEC00A10EE100A00B200909DF8012025
:100650002146641C1D4842549DF800202046611C20
:10066000CCB21A490A549FED1A0A29EE000ABDEECF
:10067000C00A10EE100A00B200909DF8012020463A
:10068000611CCCB211490A549DF800202046611C1F
:10069000CCB20E490A54201FC8700025002005E086
:1006A0000A49095C2944CDB2411CC8B2A042F7DB1B
:1006B0002046611CCCB205490D5421460348FFF782
:1006C000B7FE01B0BDEC048B30BD0000552A002000
:1006D0000000C84210B503F075FA542000F030F85D
:1006E0004FF4E131542003F0CBFD00F0B7FA00BF26
:1006F00001F019FB0128FBD100F070FA03F026F895
:1007000002F0D2FE02F036FE02F0B0FEFFF771FEFC
:1007100010BD00BFFEE70000012002490870024939
:100720000870704701000020000000200248007897
:1007300002490978084370470100002000000020AA
:1007400070B504466FF0040003F026FAE11704EBDD
:100750005171C1F3C7010D4A1170E11704EB5171DA
:10076000CD104FF47A7045430120094908804FF0BD
:10077000E020006940F002004FF0E02108610846E7
:100780004561006940F00100086170BD88000020EB
:100790008A000020704730B5CC1000F1200353F8D8
:1007A00024304C07E50E0F24AC40A343CD1000F1DC
:1007B000200444F82530CC1000F1200353F82430F5
:1007C0004C07E40E02FA04F42343CD1000F1200498
:1007D00044F8253030BDF0B50A460021002300243E
:1007E00000BF3DE0012505FA01F3156805EA0304A1
:1007F0009C4234D105684F000326BE40B5430560D6
:1008000015794E00B5400668354305601579012D10
:1008100002D01579022D16D185684F000326BE40FF
:10082000B543856055794E00B5408668354385608F
:10083000456801268E40B5434560456896798E40EF
:10084000B6B235434560C5684F000326BE40B54388
:10085000C560D5794E00B540C6683543C560491CB2
:100860001029BFD3F0BDF0B5002300244D07ED0ED5
:1008700002FA05F3CE1000F1200555F826504E0778
:10088000F70E0F26BE40B543CF1000F1200646F804
:100890002750CE1000F1200555F8265045EA0304F4
:1008A000CE1000F1200545F82640F0BD2DE9F047B7
:1008B0000C46DDE90867002100258C4600BF60E09A
:1008C0004FF0010808FA01F504EA050CAC4557D1D0
:1008D000D0F800804FEA410A4FF0030909FA0AF9FB
:1008E00028EA0908C0F80080D0F800804FEA4109E2
:1008F00002FA09F948EA0908C0F80080012A01D083
:10090000022A27D1D0F808804FEA410A4FF00309A4
:1009100009FA0AF928EA0908C0F80880D0F808801E
:100920004FEA410906FA09F948EA0908C0F80880BF
:10093000D0F804904FF0010808FA01F829EA0809F4
:10094000C0F80490D0F8048003FA01F948EA0908D5
:10095000C0F80480D0F80C804FEA410A4FF0030938
:1009600009FA0AF928EA0908C0F80C80D0F80C80C6
:100970004FEA410907FA09F948EA0908C0F80C806A
:10098000491C10299CD3BDE8F087000010B586B043
:10099000044601AA00216948006801F04BFD0E23BE
:1009A00002AA3B21682000F053FA6448006801F075
:1009B00065FE9DF809009DF8081040EA0120604995
:1009C0000988401A00B25F4908809DF80B009DF825
:1009D0000A1040EA01205A494988401A00B2594990
:1009E00048809DF80D009DF80C1040EA0120544904
:1009F0008988401A00B2534988809DF811009DF8FB
:100A0000101040EA012050490988401A00B24F49AD
:100A100008809DF813009DF8121040EA01204A4911
:100A20004988401A00B2494948809DF815009DF850
:100A3000141040EA012044498988401A00B2434911
:100A400088800846B0F9000000EE100AB8EEC00A2F
:100A5000DFED3F0A20EE200A3E4880ED000A0846FE
:100A6000B0F9020000EE100AB8EEC00ADFED380A55
:100A700020EE200A374880ED010A0846B0F904004C
:100A800000EE100AB8EEC00ADFED310A20EE200AAF
:100A9000304880ED020A01AA00212848006801F0D0
:100AA000C9FC062302AA03211E2000F0D1F9234825
:100AB000006801F0E3FD9DF809009DF8081040EA88
:100AC000012000B2244908809DF80D009DF80C100B
:100AD00040EA012000B2204948809DF80B009DF8B3
:100AE0000A1040EA012000B21B4988800846B0F98C
:100AF0000000B0F5004F04DB08460088401C00B23F
:100B000008801548B0F90200B0F5004F05DB124827
:100B10004088401C00B2104948800F48B0F90400DA
:100B2000B0F5004F05DB0C488088401C00B20A4934
:100B3000888001F027F906B010BD00008400002075
:100B40000A000020040000201600002010000020F1
:100B500089A18B3A540100201C000020DFED0C0A13
:100B6000B0EE600A4FF08040406A0A4908600020F9
:100B70004FF0804148620748D0ED000AF8EE600A65
:100B80009FED051AC0EE811AB0EE610A70470000B1
:100B900000000000D40000200024F449DFED0B0A1F
:100BA000B0EE600A0A4800680A4908600020084957
:100BB00008600848D0ED000AF8EE600A9FED061ABA
:100BC000C0EE811AB0EE610A70470000000000001C
:100BD00024080040080100200024744910B51822A0
:100BE00000213C2000F016FA202201213C2000F0D8
:100BF00011FA002202213C2000F00CFA10BD00BFC7
:100C0000FEE721B1028842F48062028004E002889B
:100C10004FF6FF331A400280704770B50246002439
:100C2000002500230020958A138B1B0445EA030648
:100C300026F07F4404EA01068E4201D1012000E043
:100C4000002070BD21B1028842F00102028004E060
:100C500002884FF6FE731A40028070471FB500F0FD
:100C600023F80020ADF804004BF6FF70ADF8060045
:100C7000C020ADF808004FF48060ADF80A00000114
:100C8000ADF80C00064800906946064800F06CF884
:100C900001210448FFF7D6FF012004B010BD000079
:100CA000A0860100005400401CB50121022002F082
:100CB00037FE0121480502F043FE4FF440700090DA
:100CC000042208210C48FFF7CEFD042209210A481E
:100CD000FFF7C9FD02208DF8040001208DF8060001
:100CE00000208DF8070002208DF8050069460248B3
:100CF000FFF771FD1CBD00000004024021B1028815
:100D000042F48072028004E002884FF6FF631A40CA
:100D10000280704721B1028842F40072028004E030
:100D200002884FF6FF531A40028070470CB5024606
:100D3000002000230193009300920B0F019321F0F8
:100D40007F41019B1BB1009B1433009303E0090C0E
:100D5000009B18330093009B1B680B400BB10120D4
:100D600000E000200CBD00002DE9FF4704460D46C1
:100D70000026B1460427DFF8CC80A6884FF6C07065
:100D80000640684602F01CFEDDF808802E48B8FBDD
:100D9000F0F01FFA80F946EA0906A68020884FF68F
:100DA000FE710840208000262849286888420CD817
:100DB00028684000B8FBF0F087B2042F00DA04275F
:100DC0003E4309F10100208427E0E8884BF6FF71DB
:100DD000884206D1286800EB4000B8FBF0F087B2EB
:100DE00009E0286800EBC00101EB0010B8FBF0F04F
:100DF00087B247F48047C7F30B0008B947F00107F3
:100E000047F4004006434FF4967009FB00F04FF49E
:100E10007A7190FBF1F0401C2084A683208840F07A
:100E20000100208026884FF6F5300640A8886989A1
:100E3000084306432680A889298908432081BDE804
:100E4000FF87000000127A0040420F00A0860100D8
:100E50002DE9F04106460F4615461C4600BF4FF4EB
:100E600000313248FFF762FF0028F8D101212F48F6
:100E7000FFF744FF00BF2E492C48FFF7CEFE0028A5
:100E8000F9D000223146294800F002F900BF294973
:100E90002648FFF7C2FE0028F9D001212348FFF7BA
:100EA000D1FE3946214800F0FBF800BF2149891CDA
:100EB0001E48FFF7B2FE0028F8D001211B48FFF7BB
:100EC0001DFF00BF1A491948FFF7A7FE0028F9D0F7
:100ED00001223146154800F0DBF800BF1449491CD7
:100EE0001248FFF79AFE0028F8D016E0012C07D12F
:100EF00000210E48FFF785FE01210C48FFF70AFF8D
:100F00000B493F310948FFF788FE30B1074800F030
:100F10007DF828706D1C601E84B2002CE6D1012182
:100F20000248FFF76EFEBDE8F0810000005400406B
:100F3000010003008200070070B504460D4600BFA3
:100F40004FF400312E48FFF7F1FE0028F8D10121BF
:100F50002B48FFF7D3FE00BF2A492948FFF75DFE63
:100F60000028F9D000222146254800F091F800BF62
:100F700025492348FFF751FE0028F9D001212048D8
:100F8000FFF760FE29461E4800F08AF800BF1E49A0
:100F9000891C1B48FFF741FE0028F8D001211848A2
:100FA000FFF7ACFE00BF17491548FFF736FE0028D3
:100FB000F9D001222146124800F06AF800BF114919
:100FC000491C0F48FFF729FE0028F8D000210C48E3
:100FD000FFF717FE01210A48FFF79CFE00BF0949F1
:100FE0003F310748FFF719FE0028F8D0044800F009
:100FF0000DF8064601210248FFF703FE304670BD9A
:101000000054004001000300820007000146088AE6
:10101000C0B2704770B504460E4615460121194806
:10102000FFF76CFE00BF18491648FFF7F6FD0028D1
:10103000F9D000222146134800F02AF800BF1349D6
:101040001048FFF7EAFD0028F9D031460D4800F0BE
:1010500027F800BF0D49891C0A48FFF7DEFD00286C
:10106000F8D02946074800F01BF800BF0749891C43
:101070000448FFF7D2FD0028F8D001210148FFF70E
:1010800049FE70BD005400400100030082000700CB
:1010900012B141F0010101E001F0FE01018270474F
:1010A0000182704700B52DED0A0BADB0FE4890ED02
:1010B000000A20EE000A8DED1D0A90ED000AFB48A3
:1010C000D0ED000A20EE200A8DED1C0AF64890EDC6
:1010D000000AF748D0ED000A20EE200A8DED1B0A29
:1010E000F14890ED000AF348D0ED000A20EE200A06
:1010F0008DED1A0AED4890ED000A20EE000A8DED04
:10110000190AD0ED000AEA4890ED000A20EE800AA4
:101110008DED180AE548D0ED000AE64890ED000A8A
:1011200020EE800A8DED170AE14890ED000A20EECE
:10113000000A8DED160A90ED000ADE48D0ED000A97
:1011400020EE200A8DED150A90ED000A20EE000A2F
:101150008DED140A9DED300ADDED310A60EE200AB6
:101160009DED320A20EE800AB5EEC00AF1EE10FACB
:1011700001D137B000BD9DED330ADDED340A60EEDC
:10118000200A9DED350A20EE800AB5EEC00AF1EE88
:1011900010FA00D1EDE79DED300A20EE000ADDEDFA
:1011A000310A00EEA00ADDED320A00EEA00A8DED54
:1011B0000F0A0F9804F0A8FBCDE910019DED100B6C
:1011C00003F056FD8DED120B9DED120B51EC100B43
:1011D00003F0A8FE2C909DED300ADDED2C0A80EE88
:1011E000201A8DED301A9DED310ADDED2C0A80EECE
:1011F000201A8DED311A9DED320ADDED2C0A80EEBC
:10120000201A8DED321A9DED330A20EE000ADDED35
:10121000340A00EEA00ADDED350A00EEA00A8DEDDD
:101220000F0A0F9804F070FBCDE910019DED100B33
:1012300003F01EFD8DED120B9DED120B51EC100B0A
:1012400003F070FE2C909DED330ADDED2C0A80EE4C
:10125000201A8DED331A9DED340ADDED2C0A80EE57
:10126000201A8DED341A9DED350ADDED2C0A80EE45
:10127000201A8DED351A9DED350AF0EE000A20EEAC
:10128000201A9DED170ADDED1B0A30EE200A21EE33
:10129000000A8DED0D0A0D9804F036FBCDE9100122
:1012A0009DED340AF0EE000A20EE201A9DED180A9A
:1012B000DDED1A0A30EE600A21EE000A8DED090A12
:1012C000099804F021FBCDE90C01149804F01CFBF3
:1012D000CDE90401169804F017FB9FED770B53EC52
:1012E000102BCDE900019DED000B51EC100B04F02B
:1012F00049F9CDE902019DED040B53EC102B9DED56
:10130000020B51EC100B04F015FACDE908019DED2C
:10131000330AF0EE000A20EE200A8DED050A05984A
:1013200004F0F2FACDE906019DED080B53EC102B09
:101330009DED060B51EC100B04F026F8CDE90A01E7
:101340009DED0C0B53EC102B9DED0A0B51EC100B8B
:1013500003F01AFECDE90E019DED100B53EC102B9E
:101360009DED0E0B51EC100B03F00EFECDE91201BA
:101370009DED120B51EC100B03F0D4FD2B909DED65
:10138000350AF0EE000A20EE201A9DED150ADDED7B
:101390001C0A30EE600A21EE000A8DED0D0A0D9850
:1013A00004F0B2FACDE91001149804F0ADFACDE9D9
:1013B0000401199804F0A8FA9FED3F0B53EC102B91
:1013C000CDE900019DED000B51EC100B04F0DAF8B3
:1013D000CDE902019DED040B53EC102B9DED020BAA
:1013E00051EC100B04F0A6F9CDE908019DED340A8B
:1013F000F0EE000A20EE200A8DED050A059804F0B3
:1014000083FACDE906019DED080B53EC102B9DED01
:10141000060B51EC100B03F0B7FFCDE90C019DED6D
:10142000330AF0EE000A20EE201A9DED180ADDEDD9
:101430001A0A30EE200A21EE000A8DED090A0998F9
:1014400004F062FACDE90A019DED0C0B53EC102B70
:101450009DED0A0B51EC100B03F096FDCDE90E014A
:101460009DED100B53EC102B9DED0E0B51EC100B62
:1014700003F08AFDCDE912019DED120B51EC100B2A
:1014800003F050FD2A90169804F03EFACDE90801C9
:10149000199804F039FA9FED080B53EC102BCDE9A5
:1014A00004019DED040B0BE0980000209C0000203F
:1014B000A0000020A4000020000000000000E03F89
:1014C00051EC100B04F05EF8CDE906019DED080B20
:1014D00053EC102B9DED060B51EC100B04F02AF988
:1014E000CDE90C019DED350AF0EE000A20EE200A50
:1014F0008DED090A099804F007FACDE90A019DED7E
:101500000C0B53EC102B9DED0A0B51EC100B03F060
:101510003BFFCDE910019DED330AF0EE000A20EE0D
:10152000201A9DED170ADDED1B0A30EE600A21EE50
:10153000000ADDED340AB0EE001A60EE811ADDED2E
:10154000150A9DED1C1A70EE810A01EEA00A8DEDC0
:101550000D0A0D9804F0D8F9CDE90E019DED100BA0
:1015600053EC102B9DED0E0B51EC100B03F00CFD0A
:10157000CDE912019DED120B51EC100B03F0D2FCE2
:1015800029909DED2B0A60EE000A9DED2A0A40EE9F
:10159000000ACDED0F0A0F9804F0B6F9CDE910015D
:1015A0009DED100B03F064FB8DED120B9DED120B06
:1015B00051EC100B03F0B6FC28909DED290A8DED3F
:1015C000270A9DED170ADDED1B0A70EE600AB0EEEA
:1015D000000A20EE800A8DED230A9DED1C0ADDED48
:1015E000150A30EE200AF0EE000A20EE200A8DEDFA
:1015F000220A9DED1D0ADDED190A70EE600A9DEDCF
:10160000160A70EEC00A9DED140A30EE800A8DEDC8
:10161000210A9DED270AF0EE000A20EE201A9DED2A
:10162000170ADDED1B0A30EE600A21EE000A8DED8F
:101630000D0A0D9804F068F9CDE91001149804F032
:1016400063F9CDE90801169804F05EF91FED660B09
:1016500053EC102BCDE904019DED040B51EC100B64
:1016600003F090FFCDE906019DED080B53EC102B24
:101670009DED060B51EC100B04F05CF8CDE90C016C
:101680009DED280AF0EE000A20EE200A8DED090AF1
:10169000099804F039F9CDE90A019DED0C0B53ECE2
:1016A000102B9DED0A0B51EC100B03F06DFECDE9F4
:1016B0000E019DED100B53EC102B9DED0E0B51EC1C
:1016C000100B03F061FCCDE912019DED120B51EC02
:1016D000100B03F027FC26909DED280AF0EE000A7F
:1016E00020EE201A9DED180ADDED1A0A30EE600A90
:1016F00021EE000ADDED270AB0EE001A60EE811A35
:10170000DDED1C0A9DED151A70EE810A01EEA00AAE
:101710008DED250A169804F0F7F8CDE9080119981F
:1017200004F0F2F81FED9C0B53EC102BCDE90401F3
:101730009DED040B51EC100B03F024FFCDE90601E5
:101740009DED080B53EC102B9DED060B51EC100B8F
:1017500003F0F0FFCDE90C019DED270AF0EE000A41
:1017600020EE200A8DED090A099804F0CDF8CDE9A4
:101770000A019DED0C0B53EC102B9DED0A0B51EC67
:10178000100B03F001FECDE910019DED280AF0EEEB
:10179000000A20EE201A9DED1B0ADDED170A30EE3F
:1017A000200A21EE000A8DED0D0A0D9804F0ACF828
:1017B000CDE90E019DED100B53EC102B9DED0E0BA2
:1017C00051EC100B03F0E0FBCDE912019DED120B83
:1017D00051EC100B03F0A6FB24909DED310ADDEDDA
:1017E000210A60EE200A9DED320A9DED221A40EE9C
:1017F000410A9DED341A9DED240A21EE001ADDED1B
:10180000351A9DED250A01EEC01A30EE810A8DEDE4
:10181000200A9DED320ADDED230A60EE200A9DEDDF
:10182000300A9DED211A40EE410A9DED350A9DEDED
:10183000261A60EE011A9DED331A9DED240A41EE41
:10184000401A30EEA10A8DED1F0A9DED300ADDED44
:10185000220A60EE200A9DED310A9DED231A40EE2A
:10186000410A9DED331A9DED250A61EE001A9DEDAA
:10187000341A9DED260A41EE401A30EEA10A8DED94
:101880001E0AFE48D0ED000A9DED200AFC4890EDAE
:10189000001A40EE010AF948C0ED000AF948D0EDFF
:1018A000000A9DED1F0AF64890ED001A40EE010A6D
:1018B000F448C0ED000AF448D0ED000A9DED1E0A80
:1018C000EF4890ED001A40EE010AEF48C0ED000A23
:1018D0009DED2D0AED4890ED001ADDED200A01EE98
:1018E000200AE648D0ED000A30EE200A8DED2D0AE0
:1018F0009DED2E0AE54890ED001ADDED1F0A01EE80
:10190000200AE048D0ED000A30EE200A8DED2E0AC4
:101910009DED2F0ADD4890ED001ADDED1E0A01EE67
:10192000200AD948D0ED000A30EE200A8DED2F0AAA
:10193000FFF714F9D64880ED000AD64890ED000A6A
:10194000F1EE400A9DED2D0A20EE800AD24890ED7E
:10195000001ADDED2E0A01EE600AD04890ED001A63
:10196000DDED2F0A01EE600AC94890ED001ACC485F
:10197000D0ED000A40EE010AC0ED000AD0ED000AE9
:101980009DED2D0A20EE800AC34890ED001ADDED92
:101990002F0A01EE200AC14890ED001ADDED2E0A53
:1019A00001EE600ABA4890ED001ABA48D0ED000A7C
:1019B00040EE010AC0ED000AB948D0ED000A9DEDE5
:1019C0002E0A20EE800AB34890ED001ADDED2F0AB2
:1019D00001EE600AB14890ED001ADDED2D0A01EE2E
:1019E000200AAB4890ED001AAB48D0ED000A40EE5B
:1019F000010AC0ED000AAA48D0ED000A9DED2F0AA9
:101A000020EE800AA34890ED001ADDED2E0A01EECB
:101A1000200AA14890ED001ADDED2D0A01EE600AC2
:101A20009B4890ED001A9D48D0ED000A40EE010A57
:101A3000C0ED000A9A4890ED000A20EE000A954891
:101A4000D0ED000A90ED001A00EE810A9248D0ED28
:101A5000000A90ED001A00EE810A904890ED001AFD
:101A6000D0ED000A01EE200A8DED0F0A0F9803F069
:101A70004BFFCDE910019DED100B03F0F9F88DED52
:101A8000120B9DED120B51EC100B03F04BFA2C9046
:101A90008348D0ED000A9DED2C0A80EE801A80ED7F
:101AA000001A7C48D0ED000A9DED2C0A80EE801AC9
:101AB00080ED001A7848D0ED000A9DED2C0A80EEEA
:101AC000801A80ED001A7548D0ED000A9DED2C0AB1
:101AD00080EE801A80ED001A6F4890ED000AF8EE53
:101AE000000A20EE200AD0ED000A20EE200A6B4802
:101AF000D0ED000AB0EE001A20EE811AD0ED000AF7
:101B000001EE600AF7EE000A30EE200A8DED0B0AB6
:101B10000B9803F0F9FECDE90E015E4890ED000A46
:101B2000F0EE000A20EE200A5B48D0ED000A20EE1D
:101B3000200A5B48D0ED000AB0EE001A60EE810A80
:101B4000564890ED001A00EE810A8DED0B0A0B98B5
:101B500003F0DAFECDE90C019DED0E1B9DED0C0BA3
:101B600002F08EFF8DED100B9FED4E0B53EC102B02
:101B70009DED100B51EC100B03F006FCCDE91201AA
:101B80009DED120B51EC100B03F0CCF947490860A6
:101B9000404890ED000AF8EE000A20EE200A3F4887
:101BA000D0ED000A20EE200A3D48D0ED000AB0EE4C
:101BB000001A60EE810A384890ED001A00EE810AA2
:101BC0008DED0D0A0D9803F09FFECDE90E019DED00
:101BD0000E0B02F039FC8DED100B9FED320B53EC28
:101BE000102B9DED100B51EC100B03F0CDFBCDE94C
:101BF00012019DED120B51EC100B03F093F92B49E0
:101C000088602448D0ED000AB8EE000A20EE800A71
:101C1000D0ED000A20EE200A1F48D0ED000AB0EEF9
:101C2000001A60EE810A90ED001A00EEC10AF7EE8C
:101C3000000A30EE200A8DED0B0A0B9803F064FECB
:101C4000CDE90E01144890ED000AF0EE000A20EEF6
:101C5000200A1248D0ED000A20EE200A1048D0EDEC
:101C6000000AB0EE001A60EE810A0A4890ED001AF0
:101C700000EE810A8DED0B0A0B9819E0A8000020F8
:101C800090000020AC000020B00000208C0000205C
:101C9000940000209C000020A0000020A400002050
:101CA000980000206666666666A64C4060010020CB
:101CB00003F02AFECDE90C019DED0E1B9DED0C0BF2
:101CC00002F0DEFE8DED100B1FED0A0B53EC102B16
:101CD0009DED100B51EC100B03F056FBCDE91201FA
:101CE0009DED120B51EC100B03F01CF902494860FA
:101CF00000BFFFF73EBA000060010020F0EE401A7E
:101D0000F4EEE01AF1EE10FA02D2B0EE600A70477B
:101D1000F4EEC11AF1EE10FA02DDB0EE410AF6E778
:101D2000B0EE610AF3E710B57521D020FFF704F992
:101D3000682801D0002010BD00226B21D020FFF7C1
:101D400069F900221921D020FFF764F906221A212F
:101D5000D020FFF75FF918221B21D020FFF75AF996
:101D600008221C21D020FFF755F902223721D0206C
:101D7000FFF750F900226A21D020FFF74BF901202C
:101D8000D9E700005C480078002858D05B4800681C
:101D900070B900205A4908804880888059490860F5
:101DA0005949086059490860012054490860704742
:101DB00052480068401C514908605548B0F900007D
:101DC0005049096808444F4908605148B0F9020079
:101DD0004D49096808444C4908604D48B0F9040071
:101DE0004A49096808444949086044480068652828
:101DF00025D142480068401E4049086041480068BB
:101E0000096890FBF1F000B23D4908803E48006847
:101E10003A49096890FBF1F000B2394948803B48E3
:101E200000683649096890FBF1F0A0F5005000B257
:101E3000334988800020314908602F4908703548AF
:101E40000078002856D03448006870B90020334923
:101E500008804880888032490860324908603249E9
:101E6000086001202C490860A1E72B480068401C4D
:101E7000294908602D48B0F900002949096808443B
:101E8000274908602948B0F9020026490968084432
:101E9000244908602548B0F904002349096808442A
:101EA000214908601C480068652823D11A48006849
:101EB000401E194908601A480068096890FBF1F053
:101EC00000B216490880174800681349096890FB5A
:101ED000F1F000B211494880134800680E490968C2
:101EE00090FBF1F000B20D49888000200A4908609B
:101EF0000849087000BF5AE701000020C000002018
:101F00000A000020B4000020B8000020BC0000201F
:101F10000400002000000020D00000201600002057
:101F2000C4000020C8000020CC00002010000020C9
:101F300000BFFEE700B5FEF731FE804880ED000AE5
:101F40007F4890ED011ADFED7F1A21EE211AF0EEA5
:101F5000410A7D4890ED011A7C48D0ED001A31EE1F
:101F6000C11AB0EE410A7A497A4801F0FFF87A487E
:101F700080ED000A724890ED001ADFED721A21EE32
:101F8000211AF0EE410A704890ED021A7348D0ED24
:101F9000001A31EEC11AB0EE410A7149714801F0E0
:101FA000E5F8714880ED000A654890ED020A9FED62
:101FB000651A20EE010AF0EE400A6C4900209FED00
:101FC0006C0A01F0D3F86B4880ED000A6A48D0ED46
:101FD000000A654890ED001A70EEC10A5E4890ED67
:101FE000001A70EE810A634890ED001A70EEC10A83
:101FF000B0EE600A9FED611ADFED610AFFF77EFE29
:10200000604880ED000A5C48D0ED000A564890ED2B
:10201000001A70EEC10A504890ED001A70EEC10A25
:10202000544890ED001A70EE810AB0EE600A9FED00
:10203000531ADFED530AFFF761FE534880ED000AA3
:102040004D48D0ED000A484890ED001A70EE810A24
:10205000414890ED001A70EE810A464890ED001A52
:1020600070EE810AB0EE600A9FED441ADFED440A7B
:10207000FFF744FE454880ED000A3F48D0ED000AD6
:10208000394890ED001A70EE810A334890ED001A3D
:1020900070EEC10A374890ED001A70EEC10AB0EE3A
:1020A000600A9FED361ADFED360AFFF727FE384843
:1020B00080ED000A304890ED000ADFED360AB4EEFC
:1020C000E00AF1EE10FA24D91F4890ED020ADFED84
:1020D000320AB4EEE00AF1EE10FA1ADA90ED020AD2
:1020E000DFED2E0AB4EEE00AF1EE10FA11D990ED10
:1020F000010ADFED290AB4EEE00AF1EE10FA08DA7F
:1021000090ED010ADFED250AB4EEE00AF1EE10FAD7
:1021100013D89FED1B0A1B4880ED000A9FED180A9B
:10212000194880ED000A9FED160A184880ED000A54
:102130009FED130A164880ED000A00BD4000002004
:1021400054010020E12E654260010020440000207F
:102150006C010020880100205C0000204800002065
:10216000A4010020C001002060000020DC0100204C
:102170000000000064000020500000200000FA442D
:1021800000007A4474000020780000207C000020C9
:10219000800000200040834400008242000082C290
:1021A00000B53D4B1B8800EE903AF8EE600AB0EEA9
:1021B000600A9FED3A1ADFED3A0AFFF79FFDBDEE88
:1021C000C00A10EE103A18B2334B5B8800EE903A1A
:1021D000F8EE600AB0EE600A9FED301ADFED300ACB
:1021E000FFF78CFDBDEEC00A10EE103A19B22A4B73
:1021F0009B8800EE903AF8EE600AB0EE600A9FED20
:10220000271ADFED270AFFF779FDBDEEC00A10EEB1
:10221000103A1BB202EE103A1F4BDB8800EE903AE8
:10222000F8EE600AB0EE600A9FED1C1ADFED1C0AA2
:10223000FFF764FDBDEEC00A10EE103A1AB2A2F22A
:10224000DC5300EE103AB8EEC00ADFED160A20EEBD
:10225000200A154B83ED000AA1F2DC5300EE103A80
:10226000B8EEC00ADFED110A20EE200A104B83ED14
:10227000000AA0F2DC5300EE103AB8EEC00ADFED1F
:102280000D0A20EE200A0C4B83ED000AB8EEC20ABC
:102290000A4B83ED000A00BD6C0000200000FA44E8
:1022A00000007A448FC2F53C440000200AD7233D49
:1022B000480000200AD7A33C4C000020500000201A
:1022C0007047000070B5002100230F22C4781CB3B2
:1022D000174C246804F4E064C4F5E064C4F30721F7
:1022E000C1F10404E3B20A4144789C40E1B284782D
:1022F000144021430C07210E0E4C057861550478DB
:1023000004F01F050124AC4005786D11AD0005F106
:10231000E025C5F8004109E0047804F01F05012418
:10232000AC40054D0678761145F8264070BD00009A
:102330000CED00E000E400E080E100E010B500F00A
:102340000DF800F057FD00F077FD00F097FD00F06C
:1023500021FD00F0CDFD00F019F810BD08488021E6
:1023600002E0491E002204C00029FAD1054A064BAA
:102370001A601A46126822F007021A6070470000BD
:1023800060340020603600205001002070470000BB
:102390002DE9F04104460E4600272248007820B17E
:1023A000102030700020BDE8F081FDF783FF074664
:1023B000FF2C0ED01C4850F8240030B13846FDF7F1
:1023C0007DFF282030700020EDE70120164941F8FC
:1023D00024001648056865B9FF2C03D00020124977
:1023E00041F824003846FDF769FF04203070284684
:1023F000D9E70E48006840680C4908603846FDF788
:102400005DFF04202870FF2040EA0420288100207E
:10241000686007A06861284600F0AEFC00203070BC
:102420002846C0E724010020782D0020200100204C
:102430003F0000002DE9F74F82B005461746002007
:1024400001902878042804D00120387005B0BDE838
:10245000F08F8448007810B102203870F6E7824887
:10246000007810B10D203870F0E7FDF723FF0190E0
:1024700028894FEA2029287AFF2822D1288900F4C8
:102480007F40288128897949096891F826100843F6
:102490002881764800686860B9F1FF0F0BD0734857
:1024A000006890F82600484505DC0198FDF706FF16
:1024B0007820387004E00198FDF700FF00203870A4
:1024C000C4E7B9F1FF0F7CD095F808B06C6894F8B8
:1024D000260048457CDD6548006890F82600584590
:1024E00076DA94F82880624810F8080094F82910E9
:1024F0000840B0B15E4810F8080094F829108843ED
:102500005B4901F80800084610F8080030B994F853
:102510002A10584800788843564908704FF0010A3D
:1025200019E0E669AEB194F8288006F10B0010F8C6
:10253000080094F82910884306F10B0101F80800FF
:10254000084610F8080020B9B07A94F82A10884399
:10255000B0724FF0000A04F8269F2078C010A070D7
:10256000207800F007006070A17801208840207179
:10257000617801208840E070263CBAF1010F10D14B
:102580002834A0783B49097808433A4908702078F4
:102590003749085C6178084314F82819344A5054C4
:1025A00013E0E6698EB1B07A2834A1780843B0729E
:1025B000217806F10B00405C6178084314F8282963
:1025C00000E005E006F10B0188542B4840F8294053
:1025D0002648006890F8240040F01000234909685C
:1025E00081F8240000202149096881F825001F494D
:1025F000039809680862284600F080FB0198FDF7FF
:102600005DFE00F0A7FCFDF755FE0190174800683D
:1026100090F8250020B1012809D0022806D102E057
:10262000002038700BE00E20387008E000BF29460B
:102630000E48006800F04CFB0A20387000BF00BF55
:1026400000200A49096881F824000849096881F8CE
:10265000250006490968C8610198FDF72FFE00BFF3
:10266000F4E60000240100202501002038010020AC
:102670002901002028010020782D00202DE9F041BB
:10268000044600272E48007810B10520BDE8F081EF
:102690002078042801D00120F8E7FDF70BFE07465B
:1026A00020890512267A274960680968884204D083
:1026B0003846FDF703FE6420E8E7FF2D0ED02148E1
:1026C000006890F82600A84204D131461D480068F1
:1026D00000F03CF801201C4941F82500A07A18B30D
:1026E000002310221946204600F0B0FA0646208941
:1026F00000F47F402081208930432081124850F827
:1027000026006060FF2D08D0AE4206DC3846FDF79B
:10271000D5FD00F01FFC7820B8E73846FDF7CEFD68
:1027200000F018FC0020B1E7208940F0FF00208174
:10273000002060603846FDF7C1FD0020A6E70000DC
:102740002401002038010020782D002030B590F8B9
:1027500028201B4B9B5C90F82940A343184CA354A2
:1027600023469B5C33B990F82A40164B1B78A34351
:10277000144C237000F8261F134B1970C1F3C203C9
:10278000837001F00703437084780123A340037131
:1027900044780123A340C37003790A4C247823436F
:1027A000084C23708378064CE35CC4782343847818
:1027B0002638034D2B55054B43F8210030BD000052
:1027C000290100202801002026010020782D00206A
:1027D00010B50B48007890B900F0F6FB0948007876
:1027E0000949087009480749097850F82100084943
:1027F00008600846006807490860FDF762FD10BDE3
:10280000310100202701002026010020782D002022
:102810004001002038010020704700002DE9FE4FE4
:1028200006460F4690461C464FF00009FDF742FD54
:1028300081461F48007828B14846FDF73FFD3C20FF
:10284000BDE8FE8F1B4850F8240060BB01201949E9
:1028500041F824004846FDF731FD00234246394641
:10286000304600F061F98246002000900190034656
:10287000024651460290204600F0BCFB054635B9A1
:102880000D48007801280CD100F064FB09E0FDF749
:1028900011FD81460020074941F824004846FDF714
:1028A0000DFD2846CCE74846FDF708FD2820C7E780
:1028B00024010020782D0020310100202DE9F04F67
:1028C00085B00746884691461C46DDE911B6DDF81D
:1028D00038A000200390FDF7EDFC03901F4800781E
:1028E00030B10398FDF7EAFC3C2005B0BDE8F08F5D
:1028F0001B4850F8240060BB0120194941F824000E
:102900000398FDF7DBFC33464A464146384600F063
:102910000BF9049010985346CDE901B6009020467B
:102920000F9A049900F066FB054635B90D4800780A
:1029300001280CD100F00EFB09E0FDF7BBFC039071
:102940000020074941F824000398FDF7B7FC28460A
:10295000CBE70398FDF7B2FC2820C6E7240100204E
:10296000782D0020310100207047000070B5054629
:1029700000264448007808B1402070BD3F2D01D1A9
:102980003E20FAE7FDF796FC0646FF2D03D13E48B0
:10299000006890F826503D4850F8254024B930464C
:1029A000FDF78CFC4320E8E7012C04D13046FDF70D
:1029B00085FC3D20E1E714F8280F3549085C617873
:1029C00088432178324A505414F828091146085C8B
:1029D00030B994F82A102F48007888432D490870A0
:1029E000E06918B12046E16900F072F90020206228
:1029F00084F8240084F8250027480078FF2804D2B2
:102A000025480078401C244908703046FDF756FCE4
:102A100000F01AF9FDF74EFC06461F48007820B179
:102A20001D480078401E1C490870204600F040F800
:102A30001A480078401E194908700020134941F8CF
:102A40002500A06930B90020616988611449606976
:102A5000086005E0D4E905014861D4E90510886102
:102A60001048006860610F4804600FA02064304681
:102A7000FDF724FC0D480078012801D100F06AFA26
:102A800000207AE72401002038010020782D002062
:102A9000290100202801002025010020320100200A
:102AA000440100203C0100203F00000031010020D3
:102AB000704770472DE9F04106460F4614464FF027
:102AC00000081548007818B112202070BDE8F08188
:102AD000FDF7F0FB8046FF2E03D11048006890F808
:102AE00026600F4850F826502DB94046FDF7E6FB0A
:102AF00043202070EAE7012D05D14046FDF7DEFBBB
:102B000043202070E2E72F644046FDF7D7FB00200A
:102B1000207000BFDAE70000240100203801002007
:102B2000782D00207047000070B50446101D20F07D
:102B300007004FF08076051F28462E60051F2846A7
:102B40002C60214E051F28462E604FF01236051FBF
:102B500028462E604FF00336051F28462E604FF0A2
:102B60000236051F28462E607610051F28462E6067
:102B7000051F284629604FF01136051F28462E6094
:102B80004FF01036051F28462E604FF00936051FFE
:102B900028462E604FF00836051F28462E604FF05D
:102BA0000736051F28462E604FF00636051F2846BB
:102BB0002E604FF00536051F28462E604FF0043674
:102BC000051F28462E6070BD553100087047000073
:102BD00070B5054600261748007800B170BD16484C
:102BE000007800B1FAE71DB3FDF764FB0646134811
:102BF000006890F828401248005D1049096891F873
:102C0000291088430E4908550846005D40B90B4815
:102C1000006890F82A100B4800788843094908702A
:102C20000648006805623046FDF748FB00F092F95F
:102C300000BFD3E724010020250100203801002037
:102C40002901002028010020704700002DE9F04FE5
:102C500005460F4690469946A87A19490E5C05F13B
:102C60000B00805D11F800B00BEBC60000F0FF0A0E
:102C7000144850F82A40002044F8200F00BF207963
:102C800020EA0800207184F805902079203C00F0AB
:102C9000080068B994F82A000B49097808430A49E2
:102CA00008700A48805D94F8291008430749885540
:102CB0002946204600F00CF85046BDE8F08F000091
:102CC000FE590008782D002028010020290100204D
:102CD00010B590F8282001F10B039B5C90F8294077
:102CE000A34301F10B04A35423469B5C23B98B7AC5
:102CF00090F82A40A3438B7210BD000010B51B4A08
:102D00001268D061194A126892F8283000F10B025B
:102D1000D25C164B1B6893F829301A43134B1B687F
:102D200093F8284000F10B031A55827A0F4B1B6869
:102D300093F82A301A4382720C4A126892F82810CB
:102D40000B4A525C094B1B6893F829309A43084B95
:102D50005A541A46525C42B9044A126892F82A3010
:102D6000044A12789A43034B1A7010BD38010020B0
:102D70002901002028010020014600228A7200203B
:102D800005E0002301F10B021354421CD0B20828C5
:102D9000F7D3704770B5F021134800F0D1F8002444
:102DA00011E0601C85B204EB44000F4901EBC00345
:102DB00005EB450001EBC006002018705E600BA01B
:102DC0005861601C84B2092CEBD304EB4400064923
:102DD00001EBC00300201870586004A05861084639
:102DE0000349086070BD0000882A00203F000000F1
:102DF000200100200020084908600849087008499F
:102E000008700849087008490870084908600849AE
:102E100008600849087070474C0100202401002018
:102E20002501002032010020310100201C0100207A
:102E3000340100204901002000210A4A11700020BD
:102E400004E00021084A1154411CC8B20828F8D3F4
:102E50000021064A1170064A1170064A1160064A9E
:102E60001160704728010020290100202601002060
:102E700027010020400100203801002070B54FF4E8
:102E8000BD61164800F05CF84FF48071144800F002
:102E900057F800230FE0581CC5B203EBC3000F49DD
:102EA00001EBC00405EBC50001EBC00666610DA097
:102EB0002064581CC3B2142BEDD303EBC3000749A5
:102EC00001EBC0040020606106A0206400200649D8
:102ED000086002480549086070BD0000782E002097
:102EE000782D00203F000000440100203C0100201C
:102EF00000B587B00320002180220A4BCDE90132C2
:102F0000CDE903104FF6FF703F23074A00900748B2
:102F1000FFF7D4FC06AA06A13F20FFF7CBFD07B0C0
:102F200000BD0000782B0020742D00202D310008FA
:102F300075432F4F532D49492049646C65000000AB
:102F400004E0002200F8012B4A1E91B20029F8D1BA
:102F50007047000010B50024FDF7ACF90446134893
:102F60000078F8B912480078E0B900F02DF811485F
:102F70001149097850F82100104908600E4800787E
:102F80000F49097888420DD00C480068C06A401C7F
:102F90000A490968C8620B480068401C0949086072
:102FA000FDF7A0F92046FDF789F910BD24010020A6
:102FB00025010020782D002027010020400100205D
:102FC000260100201C0100200649074A1278885C6F
:102FD0000649095C034A515C01EBC001044A1170C7
:102FE00070470000FE590008280100202901002038
:102FF000270100202DE9F84F05460F4690469946D7
:10300000DDE90AAB00200090FDF754F9009040483C
:103010000468002C76D00C343D49A0680860009804
:10302000FDF74CF944F80C7CA576002020766076FC
:10303000606144F808BCC4F800A044F8048C0C9803
:10304000A080A4F806900020E077E810207705F033
:103050000700E076217F01208840A077E17E0120F3
:1030600088406077002020612062A0626062E06298
:10307000206328A060630C3C002606E0002104F1D8
:10308000440040F82610701CC6B2002EF6D0204630
:10309000FFF7C2FBFDF70EF900901F4840F82540EE
:1030A0000098FDF70BF92046FFF75EFCFDF702F9EB
:1030B00000901A48006860610020A061174800680D
:1030C00010B1164800688461144804602834A07860
:1030D0001349097808431249087020781149085C9F
:1030E0006178084314F828190E4A50540E480078A5
:1030F000401C0D4908700098FDF7E0F80020BDE87D
:10310000F88FFFE70098FDF7D9F84220F7E70000B5
:103110003C0100203F000000782D002044010020E9
:10312000280100202901002032010020002400BFD6
:1031300000BFFDF7BFF8044605480068401C04497D
:1031400008602046FDF7BAF8FFF7B3FCF1E700008E
:103150003401002010B504480068FFF7E3FCFF20AD
:10316000FFF704FC10BD00003801002000B5F0EEB0
:10317000402AB0EE603A00287DD000297BD091ED46
:10318000040A744AD2ED000A80EE804A91ED050AE5
:10319000D2ED000A80EE202AC0ED002A90ED030A4D
:1031A000D0ED000A20EE200A80ED060A90ED000A1C
:1031B00080ED010A90ED060A30EE430A81ED000A27
:1031C00091ED020ADFED640AB4EEE00AF1EE10FAC6
:1031D00011DD91ED000ADFED610AB4EEE00AF1EED7
:1031E00010FA29D291ED020AD1ED000A30EE200A40
:1031F00081ED020A20E091ED020ADFED590AB4EEFA
:10320000E00AF1EE10FA0FD291ED000AB5EEC00A15
:10321000F1EE10FA10DD91ED020AD1ED000A30EE68
:10322000200A81ED020A07E091ED020AD1ED000AC1
:1032300030EE200A81ED020A91ED000AD1ED020A7A
:1032400000EE840AD1ED000A91ED011A70EEC10A78
:1032500000EE820AD1ED030A20EE200A81ED060A73
:10326000D1ED060AB0EE600A9FED3E1ADFED3E0A90
:10327000FEF744FD00E008E081ED060A91ED000A4A
:1032800081ED010A91ED060A00BD60B359BB90EDD6
:10329000050A304AD2ED000AC0EE203AC0ED002AFD
:1032A00090ED000AD0ED010A70EE600A90ED000A80
:1032B00000EEA30AD0ED030A20EE200A80ED060AF4
:1032C000D0ED060AB0EE600A9FED261ADFED260A61
:1032D000FEF714FD80ED060A90ED000A80ED010A6C
:1032E00090ED060AD0E788BB81B391ED050A194A33
:1032F000D2ED000A80EE202A1C4A92ED000A30EE40
:10330000430A81ED000A91ED000AD1ED010A70EE49
:10331000600A91ED000A00EE820AD1ED030A20EE68
:10332000200A81ED060AD1ED060AB0EE600A9FED93
:103330000D1ADFED0D0AFEF7E1FC81ED060A91EDB5
:10334000000A81ED010A91ED060A9DE7FFE79FED76
:10335000080A99E74000002000007A45000000803C
:1033600000007AC50000FA430000FAC34C000020B8
:1033700000000000284890ED000A284880ED030A6C
:10338000274890ED000A274880ED030A264890ED73
:10339000000A244880ED040A244890ED000A2148E0
:1033A00080ED050A224890ED000A224880ED030ACC
:1033B000214890ED000A214880ED030A204890ED55
:1033C000000A1E4880ED040A1E4890ED000A1B48C2
:1033D00080ED050A1C4890ED000A1C4880ED030AA8
:1033E0001B4890ED000A194880ED050A194890ED38
:1033F000000A194880ED030A184890ED000A1648A3
:1034000080ED050A0020164908709FED160A16483F
:1034100080ED000A70470000D800002088010020DD
:10342000DC0000206C010020E0000020E40000200F
:10343000E8000020C0010020EC000020A4010020D2
:10344000F0000020F4000020F8000020DC01002043
:10345000FC00002000010020F801002004010020F1
:103460005800002000000000540000200EB501218B
:10347000042000F065FA0B4800F0A6FC4FF6FF7040
:1034800001904F20ADF800000020ADF80800ADF825
:1034900002006946034800F0CBFD0121014800F01D
:1034A00086FC0EBD0008004000B589B00121032054
:1034B00000F036FA0121062000F042FAC020079001
:1034C00002208DF820008DF8210000208DF82200C8
:1034D00001208DF8230007A97948FDF77CF9C32066
:1034E000079002208DF820008DF8210000208DF833
:1034F000220001208DF8230007A97248FDF76BF91F
:10350000022206216E48FDF7AEF9022207216C481F
:10351000FDF7A9F9022200216A48FDF7A4F9022269
:1035200001216848FDF79FF9022206216548FDF751
:103530009AF9022207216348FDF795F9624800F0E5
:1035400043FC624800F040FC4FF6FF7001905320AE
:10355000ADF800000020ADF80800ADF802008DF8CD
:103560000A006946584800F063FD6946574800F074
:103570005FFD0020ADF80C00ADF80E000120ADF8A5
:1035800010000020ADF812000B20ADF8140003A9C4
:103590004D4800F0E1FC0420ADF80C000020ADF82F
:1035A0000E000120ADF810000020ADF812000B2035
:1035B000ADF8140003A9444800F0CEFC0820ADF893
:1035C0000C000020ADF80E000120ADF81000002026
:1035D000ADF812000B20ADF8140003A93A4800F032
:1035E000BBFC0C20ADF80C000020ADF80E00012053
:1035F000ADF810000020ADF812000B20ADF814005B
:1036000003A9314800F0A8FC0020ADF80C00ADF88B
:103610000E000120ADF810000020ADF812000B20C4
:10362000ADF8140003A9294800F096FC0420ADF879
:103630000C000020ADF80E000120ADF810000020B5
:10364000ADF812000B20ADF8140003A91F4800F0DC
:1036500083FC1D208DF8180000208DF819008DF8CE
:103660001A0001208DF81B0006A8FEF72BFE012290
:103670000221154800F0A7FC01220421124800F0A5
:10368000A2FC01220821104800F09DFC012210211B
:103690000D4800F098FC012202210C4800F093FC38
:1036A00001220421094800F08EFC0121064800F0A7
:1036B0007EFB0121054800F07AFB09B000BD000047
:1036C00000000240000402400004004000080040E6
:1036D000194890ED000ADFED190A20EE200ABCEE31
:1036E000C00A10EE100A4FF080414863144890ED74
:1036F000000ADFED120A20EE200ABCEEC00A10EE2E
:10370000100A88630F4890ED000ADFED0C0A20EEE6
:10371000200ABCEEC00A10EE100AC8630A4890EDF9
:10372000000ADFED060A20EE200ABCEEC00A10EE09
:10373000100A08647047000078000020384A5E3D97
:10374000800000207C000020740000207CB540F246
:10375000E73540F20B646F48006840F001006D49A6
:1037600008600806008820F0600009060880084606
:10377000008820F0100008800846008920F007002B
:1037800008810846C5620485002048638863C863D1
:10379000086460481038006840F001005D49103945
:1037A00008600020022103460A46CDE900100121ED
:1037B0005948FDF77BF80020022103460A46CDE96F
:1037C00000105548FDF772F8022200215248FCF71C
:1037D000E2FF022201215048FCF7DDFF4FF080405C
:1037E000008B20F003004FF0804108830846008BD7
:1037F00040F0600008830846008B40F00800088312
:103800000846008C40F0010008840846008C20F037
:10381000020008840846008B20F4407008830846A4
:10382000008B40F4C04008830846008B40F40060E1
:1038300008830846008C40F0100008840846008C7D
:1038400020F02000088433481038006840F0010060
:103850003049103908600020022103460A46CDE9AC
:10386000001004212C48FDF721F800200221034616
:103870000A46CDE9001008212748FDF717F8022273
:1038800011462548FCF787FF022203212248FCF756
:1038900082FF4FF08040808B20F003004FF080418A
:1038A00088830846808B40F0600088830846808BC0
:1038B00040F0080088830846008C40F4807008843B
:1038C0000846008C20F4007008840846808B20F4A1
:1038D000407088830846808B40F4C0408883084647
:1038E000808B40F4006088830846008C40F4805050
:1038F00008840846008C20F400500884084600889C
:1039000040F0800008800846008840F001000880F0
:103910007CBD0000403802400000024070470000BB
:1039200029B1064A12680243044B1A6004E0034AB4
:1039300012688243014B1A60704700003038024021
:1039400029B1064A12680243044B1A6004E0034A94
:1039500012688243014B1A607047000040380240F1
:1039600029B1064A12680243044B1A6004E0034A74
:1039700012688243014B1A607047000020380240F1
:1039800029B1064A12680243044B1A6004E0034A54
:1039900012688243014B1A607047000044380240AD
:1039A00029B1064A12680243044B1A6004E0034A34
:1039B00012688243014B1A607047000024380240AD
:1039C000F0B5002100220024022500260223324FF8
:1039D0003F6807F00C0121B1042905D0082937D12F
:1039E00005E02E4F076036E02D4F076033E02A4F89
:1039F0003F1F3F68C7F38056274F3F1F3F6807F0C0
:103A00003F036EB1264FB7FBF3F7DFF88CC0ACF184
:103A1000040CDCF800C0CCF3881C07FB0CF40CE0B1
:103A20001E4FB7FBF3F7DFF870C0ACF1040CDCF805
:103A300000C0CCF3881C07FB0CF4174F3F1F3F68F6
:103A4000C7F301477F1C7D00B4FBF5F7076002E078
:103A5000124F076000BF00BF0F4F3F6807F0F00133
:103A60000909104F7A5C0768D74047600A4F3F68E2
:103A700007F4E051890A0B4F7A5C4768D7408760AA
:103A8000054F3F6807F46041490B064F7A5C476871
:103A9000D740C760F0BD0000083802400024F400A1
:103AA00000127A000C010020704700000CB50020C5
:103AB000019000903448006840F48030324908603A
:103AC00000BF3148006800F4003000900198401CAD
:103AD0000190009818B90198B0F5A06FF1D12A486B
:103AE000006800F4003010B10120009001E00020D7
:103AF00000900098012846D123484030006840F0EB
:103B000080502149403108602048006840F440401E
:103B10001E4908601C48083000681B4908310860CD
:103B20000846006840F4004008600846006840F419
:103B3000A05008601648091F0860081F006840F080
:103B40008070091F086000BF0F48006800F0007017
:103B50000028F9D040F205700E4908600A48083084
:103B6000006820F003000849083108600846006832
:103B700040F00200086000BF03480830006800F011
:103B80000C000828F8D10CBD00380240007000403D
:103B900008544007003C0240042808D14FF0E021BF
:103BA000096941F004014FF0E022116107E04FF094
:103BB000E021096921F004014FF0E0221161704712
:103BC000704700007FB56846FFF7FAFE4FF47A723F
:103BD0000098B0FBF2F1481EB0F1807F00D31BE0EB
:103BE000481E4FF0E022506150170F22002807DADC
:103BF00013071D0E094B00F00F04241F1D5503E091
:103C000013071C0E064B1C5400BF00204FF0E0228F
:103C100090610720106100BF7FBD000018ED00E03B
:103C200000E400E010B51548006840F47000134946
:103C300008601348006840F0010011490860002046
:103C40000F49083108600E4800680E4908400C49C9
:103C500008600D48091D0860081F006820F48020D6
:103C6000091F0860002006490C310860FFF71EFF9D
:103C70004FF0006001498039086010BD88ED00E018
:103C800000380240FFFFF6FE10300024F0B50C466D
:103C9000154600210022068C4FF6FE773E40068432
:103CA000018B028C4FF60C7631407E1C06EA03161F
:103CB0002E4331434FF6F576324044F0010632434D
:103CC00001830284F0BDF0B50C46154600210022A8
:103CD0000026078C4FF6EF7C07EA0C070784018B60
:103CE000028C4FF6FF7707EA041640F6FF4739408B
:103CF0004FF6FF7707EA033739434FF6FF7707EAB6
:103D0000052739434FF65F773A4046F010073A43AC
:103D100001830284F0BDF0B50C4615460021002257
:103D20000026078C4FF6FF6C07EA0C070784818B8F
:103D3000028C4FF6FF7707EA04264FF60C773940DE
:103D40004FF6FF7707EA03172F4339434FF2FF5728
:103D50003A4046F480773A4381830284F0BDF0B55F
:103D60000C461546002100220026078C4EF6FF7CEB
:103D700007EA0C070784818B028C4FF6FF7707EA6E
:103D8000043640F6FF4739404FF6FF7707EA05272C
:103D900039434FF6FF7707EA0337394345F6FF7794
:103DA0003A4046F480573A4381830284F0BD21B102
:103DB000028842F00102028004E002884FF6FE739E
:103DC0001A4002807047000010B5044655488442EE
:103DD00008D101210846FFF7E3FD00210120FFF78C
:103DE000DFFD9DE0B4F1804F08D101210846FFF7C7
:103DF000B7FD00210120FFF7B3FD91E04A4884425E
:103E000008D101210220FFF7ABFD00210220FFF7BE
:103E1000A7FD85E04548844208D101210420FFF731
:103E20009FFD00210420FFF79BFD79E0404884427C
:103E300008D101210820FFF793FD00210820FFF79A
:103E40008FFD6DE03B48844208D101211020FFF72F
:103E500087FD00211020FFF783FD61E03648844292
:103E600008D101212020FFF77BFD00212020FFF752
:103E700077FD55E03148844208D101210220FFF747
:103E80008FFD00210220FFF78BFD49E02C48844282
:103E900009D101210804FFF783FD00214FF4803090
:103EA000FFF77EFD3CE02748844209D10121480408
:103EB000FFF776FD00214FF40030FFF771FD2FE092
:103EC0002148844209D101218804FFF769FD0021BE
:103ED0004FF48020FFF764FD22E01C48844208D1A3
:103EE00001214020FFF73CFD00214020FFF738FD75
:103EF00016E01748844208D101218020FFF730FDE9
:103F000000218020FFF72CFD0AE01248844207D1EF
:103F100001218015FFF724FD0021A015FFF720FDEA
:103F200010BD0000000001400004004000080040F7
:103F3000000C00400010004000140040000401404C
:103F4000004001400044014000480140001800408A
:103F5000001C00400020004070B505460C4620883B
:103F600050B92389A28861882846FFF78FFEE1882F
:103F7000284600F031F825E0208804280AD123895A
:103F8000A28861882846FFF79EFEE188284600F057
:103F90002CF817E0208808280AD12389A288618894
:103FA0002846FFF7B8FEE188284600F02BF809E024
:103FB0002389A28861882846FFF7D1FEE188284638
:103FC00000F029F870BD1AB183890B43838102E0A8
:103FD00083898B4383817047028B4FF6F3731A40BA
:103FE0000283028B0A4302837047028B4FF2FF3336
:103FF0001A400283028B4FF6FF7303EA01231A4330
:1040000002837047828B4FF6F3731A408283828B50
:104010000A4382837047828B4FF2FF331A408283B8
:10402000828B4FF6FF7303EA01231A4382837047A2
:1040300000220288184B98420ED0184B98420BD0A1
:10404000B0F1804F08D0164B984205D0154B9842DE
:1040500002D0154B984204D14FF68F731A404B880B
:104060001A43124B984207D0114B984204D04FF696
:10407000FF431A400B891A4302804B68C3620B88C6
:104080000385054B984202D0044B984201D18B7AAC
:104090000386012383827047000001400004014031
:1040A0000004004000080040000C004000100040E8
:1040B000001400404FE00020FCF768FCFCF736FBE2
:1040C000E8BB2548B0F9040004EE900AF8EEE44A93
:1040D000B0EE644A2048B0F9020004EE900AF8EE0F
:1040E000E44AF0EE643A1C48B0F9000004EE900A8D
:1040F000F8EEE44AB0EE643A1848B0F9040004EE71
:10410000900AF8EEE44AF0EE642A1448B0F902008E
:1041100004EE900AF8EEE44AB0EE642A0F48B0F9D3
:10412000000004EE900AF8EEE44AF0EE641A0C483F
:10413000D0ED024AB0EE641AD0ED014A00E007E08B
:10414000F0EE640AD0ED004AB0EE640AFCF7AAFF74
:104150000120FEF73DFDAEE71C000020040000201A
:104160005401002086B034E01A48B0F9040019491F
:10417000B1F90210174AB2F90020174BB3F9043015
:10418000CDE90132CDE903101348B0F90200124C19
:104190000090B4F90030114CB4F90420B4F90210C5
:1041A000B4F90000FCF75AF9FCF7C0FA70B90C48F2
:1041B000D0ED001AB0EE611AD0ED021AF0EE610AED
:1041C000D0ED011AB0EE610AFCF706FA0A20FEF7FC
:1041D000FFFCC9E71C0000201000002004000020A4
:1041E000600100200BE0FDF7DBFFFCF79FFA18B938
:1041F000FDF7A0FEFFF76CFA0320FEF7E9FCF2E7FB
:1042000038B50446FCF766FA362015490860091DE2
:104210000860091D0860091D086041F28830FEF73A
:10422000D7FCFCF779FA69460520FEF7B1F80D498D
:10423000086009230C4A00210C48FEF7EFFA062318
:104240000B4A00210B48FEF7E9FA08230A4A00212D
:104250000A48FEF7E3FAFF20FEF788FB38BD0000AE
:104260003404004084000020441A00206541000806
:1042700044220020B5400008442A0020E5410008FF
:1042800030B587B005460C4601210420FFF748FBF6
:1042900001212020FFF774FB082206211748FCF7B4
:1042A000E2FA082207211548FCF7DDFAC020059044
:1042B00002208DF818008DF8190000208DF81A00E2
:1042C00001208DF81B0005A90C48FCF784FA019425
:1042D0000020ADF80800ADF80A00ADF80C00ADF80C
:1042E00010000C20ADF80E0001A9054800F024F8DC
:1042F0000121034800F006F807B030BD0008024075
:104300000014014021B1828942F40052828104E00C
:1043100082894DF6FF731A40828170470246002061
:10432000B1F5007F00D100BF13880B400BB1012015
:1043300000E00020704700002DE9FF4705460E46CB
:104340000024A14600BFA046B08900B100BF2C8A5E
:1043500024F44054F08804432C82AC8941F20C6070
:104360008443B08831890843718908430443AC8190
:10437000AC8A24F44074B0890443AC826846FFF7E9
:104380001FFB2048854202D01F48854202D1DDF83C
:104390000C9001E0DDF80890A88900F4004040B1DD
:1043A00009EBC90000EB091031684900B0FBF1F7D7
:1043B00007E009EBC90000EB091031688900B0FB88
:1043C000F1F76420B7FBF0F004012009642101FB40
:1043D0001078A88900F4004040B1322000EBC800FA
:1043E000B0FBF1F000F00700044308E0322000EBDE
:1043F00008106421B0FBF1F000F00F0004432C81A1
:10440000BDE8FF870010014000140140C1F308021D
:104410008280704700BFFEE703B401984100009816
:1044200050EAC12018BF04204A0D18BF40F0010017
:1044300040F2FF72B2EB515F08BF40F0020001286A
:1044400008BF052002B0704770B5C1482DED020BC2
:104450002DED0E8B82B0119D25F000449FEDBEDB4B
:104460009FEDBFEB84423EDBA4F140511098A1F1D7
:104470007F6108430FD0BC48844202DC28D11098E9
:1044800030B39DED100B02B0BDEC0E8B02B0BDE859
:10449000704000F0A6BC9DED100B53EC1D2B51ECB1
:1044A000100B00F071FF9DED100B41EC180B53EC5D
:1044B0001E2B51EC100B00F067FF53EC182B00F093
:1044C00063FD41EC100B02B0BDEC0E8B02B070BD71
:1044D0000120FBF74BFF02B0BDEC0E8B02B0BDE834
:1044E000704000F095BCA1489FEDA18B844256DA44
:1044F0009DED100BB4F1795F0ADA51EC100BFFF768
:104500008BFF042808BF00F093FC9DED100BDAE749
:1045100053EC102B51EC100B00F036FF41EC190B53
:1045200095480621B0EE490AF0EE690A784400F099
:10453000DCFB53EC192B51EC100B00F025FF41EC88
:104540001A0B8E48B0EE490AF0EE690A042178444D
:1045500000F0CBFB53EC192B51EC100B00F014FFC7
:1045600053EC182B00F010FD41EC100B51EC1A0B22
:1045700053EC102B00F0B0FDCDE900019DED000BD8
:1045800053EC102B9DED100B51EC100B00F0FCFECA
:104590009DED101B53EC112B00F0F6FCD2E09DEDCD
:1045A000100B51EC100B00F05BFC53EC182B00F0DF
:1045B000E9FF9FED730BCDE9000153EC102B9DED4E
:1045C000000B51EC100B00F0DFFE41EC190B6E48B4
:1045D0000621B0EE490AF0EE690A784400F085FB46
:1045E00053EC192B51EC100B00F0CEFE41EC1B0BE1
:1045F0006648B0EE490AF0EE690A0421784400F0FA
:1046000074FB53EC192B51EC100B00F0BDFE53EC76
:10461000182B00F0B9FC41EC1C0B51EC190B00F00D
:104620003DFC41EC180B5A489FED5BABA04222DCED
:1046300053EC1C2B51EC1B0B00F04EFDCDE900019F
:104640009DED000B51EC180B53EC102B00F09CFE71
:1046500053EC182B00F098FC53EC1A2B00F094FE4E
:1046600053EC1D2B01F066F853EC1E2B00F08AFF73
:1046700041EC100B5FE08DED008B002000909DED74
:10468000000B51EC180B53EC102B00F07DFC9DED52
:10469000000B41EC1E0B53EC102B51EC100B00F0F7
:1046A00073FE53EC192B00F06DFF53EC1E2B00F042
:1046B00013FD41EC190B53EC1C2B51EC1B0B00F0C0
:1046C0000BFD41EC1B0B53EC1A2B51EC190B00F0BA
:1046D0005BFE53EC1D2B00F055FF41EC190B53EC26
:1046E0001A2B51EC180B00F04FFE53EC1B2B00F073
:1046F0004BFE53EC192B01F01DF89DED000B41EC26
:10470000180B53EC1A2B51EC100B00F03DFE9FEDF3
:10471000249B53EC192B00F035FF41EC100B51ECAE
:10472000180B53EC102B01F005F853EC192B00F08B
:1047300029FF41EC100B002D3FF7C5AE51EC100BDB
:1047400000F0E3FB41EC100BBDE6000000000000B0
:104750000000F03F00000000075C143326A6913CE7
:10476000182D4454FB21F93F0000F07F0000E03F8A
:10477000000000000000F03FD0150000DE15000032
:10478000000000000000E03F22150000301500008E
:104790003333EF3F00000000000000000000004045
:1047A000182D4454FB21E93F70B59B482DED020BB9
:1047B0002DED068B079D25F00044A04218DC97489C
:1047C000844202DC0AD1069840B19DED060BBDEC97
:1047D000068B02B0BDE8704000F003BB002DCCBFDB
:1047E0009FED8F0B9FED900BBDEC068B02B070BD63
:1047F0008F48A04215DD8F48A042D8BF4FF0FF344C
:1048000058DD9DED060B51EC100BFFF705FE04285B
:1048100008BF00F00DFB9DED060BBDEC068B02B052
:1048200070BD9DED060B51EC100B00F019FBCDE9AE
:10483000060181489FED828BA0423CDD8248A04268
:104840001FDD00249FED82AB9DED060B53EC1A2B70
:1048500051EC100B00F098FB9DED060B41EC190B91
:1048600053EC1A2B51EC100B00F08EFD53EC182B6F
:1048700000F060FF53EC192B00F02EFCCDE906018F
:1048800049E09DED060B012453EC182B51EC100B65
:1048900000F07AFB9DED060B41EC190B53EC182B45
:1048A00051EC100B00F046FF53EC192B00F014FCF8
:1048B000CDE906012FE06848A0421FDD02249FEDEC
:1048C000689B9DED060B53EC192B51EC100B00F07F
:1048D0005BFD53EC182B00F057FB9DED060B41ECF4
:1048E000180B53EC192B51EC100B00F023FF53EC79
:1048F000182B00F0F1FBCDE906010CE09DED060B55
:10490000032453EC102B9FED580B51EC100B00F0CF
:10491000E3FBCDE906019DED060B53EC102B51ECAA
:10492000100B00F031FD41EC180B53EC182B00F08C
:104930002BFD41EC190B4E480621B0EE490AF0EE72
:10494000690A784400F0D1F953EC182B51EC100BA4
:1049500000F01AFD41EC180B4648B0EE490AF0EEA3
:10496000690A0521784400F0C0F953EC192B51EC89
:10497000100B00F009FD41EC100B51EC180B53EC3F
:10498000102B002C0EDA00F0FFFA9DED061B53EC05
:10499000112B00F0F9FC9DED061B53EC112B00F0E0
:1049A000F1FD35E000F0F0FA9DED061B53EC112B04
:1049B00000F0EAFC41EC100B2F48784400EBC400F7
:1049C00090ED001B51EC100B53EC112B00F0B2FEDC
:1049D0009DED061B53EC112B00F0ACFE41EC100BCF
:1049E0002648784400EBC40090ED001B51EC100BFE
:1049F00053EC112B00F0C6FD41EC100B002DA2BFB3
:104A0000BDEC068B02B070BD51EC100B00F07DFACE
:104A100041EC100B01E70000000010440000F07FA3
:104A2000182D4454FB21F93F182D4454FB21F9BFA4
:104A30000000DC3F0000203E0000F33F00000000CB
:104A4000000000000000F03F0000E63F0000000012
:104A50000000000000000040008003400000000053
:104A6000000000000000F83F000000000000F0BF60
:104A70007212000028120000B21100006A1100003A
:104A800070B56B4E2DED040B2DED028B82B0DDF871
:104A90001CC0DDE905235C422CF000411C4341EAC7
:104AA000D474049D22F00040B44205D86C422C43DB
:104AB00040EAD474B4420BD99DED061B9DED040B66
:104AC00002B0BDEC028B04B0BDE8704000F093B9B9
:104AD000ACF14054A4F17F641C430BD0022404EADF
:104AE000AC7444EAD27405439FED538B9FED542B75
:104AF00007D015E09DED040B51EC100B00F0A8F968
:104B000042E0002C11BF012C9DED040B02B0BDEC66
:104B1000028B04BF04B070BD022C38D0032C3BD0F4
:104B20000B439FED491B9FED4A0B0AD0B14218D1B0
:104B3000B04209D121F0804120F0804007910590DA
:104B40000FE0002A15DA10E0434B7B44002C08BF2D
:104B500093ED000B0DD0012C10D0022C17D0032C9C
:104B60001AD0B0421DD1002A03DAB0EE410AF0EEAD
:104B7000610A02B0BDEC028B04B070BD93ED000B76
:104B800051EC100B00F0C1F941EC100BF1E7B0EE65
:104B9000480AF0EE680AECE7B0EE420AF0EE620A6C
:104BA000E7E7401A00153C28C8BF8DED000B19DC63
:104BB000BCF1000FBEBF10F13C0F9FED290B8DED36
:104BC000000B0FDB9DED060B53EC102B9DED040B42
:104BD00051EC100B00F080FA00F042F900F038F9C7
:104BE000CDE90001002C08BF9DED000BC1D0012CC8
:104BF00010D0022C9FED1C0B53EC102B9DED000BE5
:104C000051EC100B0DD000F095FD53EC182B00F07B
:104C100091FDB9E7019880F0004001909DED000BF7
:104C2000A7E700F087FD53EC182B00F0ABFCABE7D7
:104C30000000F07F00000000182D4454FB210940C3
:104C4000182D4454FB2109C0182D4454FB21F9BFF1
:104C5000182D4454FB21F93F9A1000000000000079
:104C60000000000000000000075C143326A6A13CF1
:104C700000B52DED048BB0EE409AF0EE609A83B053
:104C800051EC190B00F08AFC41EC180B18EE100ADD
:104C900018EE901A8DED008B002818BF01200843F4
:104CA00020F00040C0F17F6000F1E040C00F14D060
:104CB00019EE101A19EE900A8DED009B002918BF0D
:104CC0000121084320F00040C0F17F6000F1E04086
:104CD000C00F04BF0120FBF749FBB0EE480A03B048
:104CE000F0EE680ABDEC048B00BD70B504462DEDF6
:104CF000028B4D1E00EBC500B0EE408AF0EE608ADC
:104D000090ED000B35F0060017D053EC182B51EC4A
:104D1000100B00F039FB41EC100B6D1E04EBC500CD
:104D200090ED001B51EC100B53EC112B00F02CF903
:104D300041EC100B35F00600E7D1022D36D0042DE2
:104D40001CD0062D1CBFBDEC028B70BD53EC182B84
:104D500051EC100B00F018FB94ED0A1B53EC112BD7
:104D600000F012F953EC182B00F00EFB94ED081B29
:104D700053EC112B00F008F941EC100B53EC182BFD
:104D800051EC100B00F000FB94ED061B53EC112BC3
:104D900000F0FAF853EC182B00F0F6FA94ED040B3F
:104DA00053EC102B00F0F0F841EC100B53EC182BE7
:104DB00051EC100B00F0E8FA94ED021B53EC112BB0
:104DC00000F0E2F853EC182B00F0DEFA94ED001B33
:104DD00053EC112B00F0D8F8BDEC028B41EC100B1A
:104DE00070BD10B553EC102B51EC100B00F0CCF84B
:104DF00041EC100B10BD10B553EC112B51EC100B06
:104E000000F0C2F841EC100B10BD000000000000E3
:104E10009FED050B10B553EC102B51EC100B00F06F
:104E20005BF941EC100B10BD000000000000000019
:104E30009FED050B10B553EC102B51EC100B00F04F
:104E4000A3FA41EC100B10BD0000000000000010A0
:104E500010B541EC100BFFF7A7FC51EC100B10BD87
:104E600082B0CDE9000121F0004001909DED000BE2
:104E700002B051EC100B704710B5FDF75FFA042338
:104E8000044A00210448FDF7C9FCFDF7A1FC0020FD
:104E900010BD0000441200200142000800B52DEDB5
:104EA000048B83B041EC190B00F078FB41EC180B3C
:104EB00018EE100A18EE901A8DED008B002818BF1E
:104EC0000120084320F00040C0F17F6000F1E04085
:104ED000C00F14D019EE101A19EE900A8DED009B38
:104EE000002918BF0121084320F00040C0F17F6075
:104EF00000F1E040C00F04BF0120FBF737FA51EC8E
:104F0000180B03B0BDEC048B00BD81F0004170476D
:104F100080F00040704721F00041704720F00040D1
:104F20007047000021F00042A2F16052B2F5801FEC
:104F300001F0004328BFD2F17F6C0BD95FEA001C5F
:104F400043EAC20242EB507018BF704728BF20F0FE
:104F500001007047B2F5801FBCBF184670474FEA8A
:104F6000410C1CF5001F02D2084600F043BD70B58D
:104F700000F0B4FA00000089FFF7F6BF4FF00040E0
:104F8000A0F580007047000010B591EA030F48BFFC
:104F900083F0004300F1D683841A71EB030C05D231
:104FA000121943EB0C03001B61EB0C01DFF824E149
:104FB0004FEA1154A4EB135C1EEA430F18BF9EEA9C
:104FC000445F73D023EA0E03DCF1200E21EA045182
:104FD00043F4801332D322FA0CFE10EB0E0023FAB6
:104FE0000CFE41EB0E01CCF1200E03FA0EFE10EB8D
:104FF0000E0051F10001B1F5801FCCF1200E32D22C
:1050000001EB045112FA0EF2BDE8104058BF704790
:10501000401C38BF5FEA420218BF7047002814BF27
:1050200020F0010041F100014FEA410313F5001F98
:1050300038BF7047A1F1C04100F09EBA012A43EB8E
:105040000302ACF1200CDCF11F0E32BF4FF0000E5A
:1050500023FA0CF310EB030041EB0451B4EB115FA6
:10506000D0D0A1EB045101F5801149085FEA30006E
:1050700001EB04510ED350F1000038BF12FA0EFEBE
:1050800008D1BDE81040C9E7401C38BF5FEA4202C2
:10509000CAD1C3E7BDE810404FEA410313F5001F32
:1050A00038BF7047A1F1C04100F066BA9EEA445F84
:1050B00008D011EA5E0FBDE8104004BF01F00041C6
:1050C00000207047BDE8104070B500F007FA00BF3F
:1050D00064FBBE3E0000E0FF2DE9C04130B4DFF8C4
:1050E000A0C23CEA111418BF3CEA131400F0EC8093
:1050F00081EA03051CEA111444EAD57418BF1CEABE
:10510000131500F0C780A4EB05044FF0004545EAF5
:10511000C12145EAC32341EA505143EA525304F105
:105120007F74994204F500344FEAC0204FEAC2224E
:1051300008BF904200F09C804FEA13650FF24016C2
:10514000765D4FEA134506FB05F7C7F1807706FB4E
:1051500007F74FEAD737A7FB03687642C8F58038D0
:10516000A7FB06CE38BFA8F1010807FB08E64FF001
:10517000000EA6FB028CE6FB03CEDCF1000CCEF1A8
:10518000004E38BFAEF1010EA6FB0C584FF00007E1
:105190004FF00005E6FB0E87A1FB08C6A0FB07CE7B
:1051A00016EB0E0645F10005E1FB076515F1E04E33
:1051B0007EBFA4F580345FEA46066D4116F1800794
:1051C00045F100054FEA17274FEA066647EA0567EB
:1051D000A6F1DE46B6F1805F4FEA15251FD93846A5
:1051E00024F0010C05EBC471BCF1FE6F01EB0C1156
:1051F00002D8F0BCBDE8008124425CBF01F5801EEE
:105200009EEAC47F02D4F0BCBDE80081244238D4B9
:10521000F0BCA1F1C041BDE8004100F0ADB94FEADA
:10522000D22242EA43524FEAD323A7FB02864FEA37
:10523000D02040EA415007FB03661EEA0E0F4FEAFA
:10524000D12105FB026658BFA6EB0056B6EB00560F
:105250004FEA520E4EEAC37E18EB0E0E56EB530E7B
:10526000BDD518EB02085E417F1C55F10005B6E77D
:105270004FF480154FF000074FF000064FF0000884
:10528000ADE7F0BC4FF0000001F1C04101F000417A
:10529000BDE8008111EA0C1F0CEA131500D00CE0E8
:1052A00013EA0C1F00F025804FF00000F0BC81EAEB
:1052B000030101F00041BDE80081F0BCBDE8004100
:1052C00081EA030100F058B9F0BCBDE8004170B5B7
:1052D00000F004F9097EFC3E00F007B881EA030102
:1052E0004FF0000001F00041704781EA030100F037
:1052F00043B9F0BCBDE800414FF0000021497047C0
:10530000FFFDFBF9F7F5F4F2F0EEEDEBE9E8E6E48A
:10531000E3E1E0DEDDDBDAD8D7D5D4D3D1D0CFCD11
:10532000CCCBCAC8C7C6C5C4C2C1C0BFBEBDBCBB4A
:10533000BAB9B8B7B6B5B4B3B2B1B0AFAEADACAB45
:10534000AAA9A8A8A7A6A5A4A3A3A2A1A09F9F9E1F
:105350009D9C9C9B9A9999989797969595949393D1
:10536000929191908F8F8E8E8D8C8C8B8B8A898968
:1053700088888787868585848483838282818180EB
:105380000000FF070000F87FDFF848C170B51CEA95
:10539000111E1EBF1CEA13159EEA0C0F95EA0C0F96
:1053A00000F06F8081EA030423EA4C134EEAD47EB6
:1053B00021EA4C1141F4801143F48013AE44A1FB67
:1053C000024CA0FB0365AEF17F7E361955EB0C0550
:1053D000A1FB034C4CF10003A0FB021C16EB0C06D6
:1053E000654153F10003094218BF46F0010613F46A
:1053F000007F0BD14FEA03314FEA0530340341EA15
:10540000155140EA16506FF003020AE04FEAC3213B
:105410004FEAC520F40241EA555140EA56506FF078
:10542000020202EB2E4201EB025585EACE710AD050
:105430005FEA440C18BF24F0004450F1000041F131
:10544000000120EAD47040F2FE7C624500D270BDBB
:10545000A84214BF4FF080444FF04044002E08BFD4
:105460000024BEF1806FA8BFA1F1C041BDE870402B
:1054700080F282804FF0000001F1C04101F0004154
:1054800070479EEA0C0F0CEA131518BF95EA0C0F33
:1054900006D04FF0000081EA030E0EF0004170BD0F
:1054A00000F01CF88900013E00F007B800F009B8D0
:1054B0004FEA430C5FEA5C5C08D081EA030100F02C
:1054C0005BB84FEA410C5FEA5C5CF6D14FF000003C
:1054D000014970470000FF070000F87F0EF1020E3F
:1054E0002EF0030E5EF8046B364205D4012A43EB1E
:1054F000030515F5001F12D8012841EB010C1CF51E
:10550000001F0CD80ED14FEAD17C15F5001F0CEB13
:105510004C0C0CF1020C08BF4CEBD37C04E04FF0B8
:10552000080C01E04FEAD37C0CEB4C0526FA05F69B
:1055300006F00706B6F1040C06D20EEB860CBDE8A9
:1055400070404CF0010C6047DFE80CF0090B0202E0
:105550004FF000414FF00000A1F5002170BD194649
:105560001046012851EB010418BFD4F5001484BF84
:10557000002001F0004170BD0808A0F500114FEABD
:105580003101704791EA030F10B581F000413FF5FA
:1055900003AD83F0004300F0D5B800002DE9F041E1
:1055A00001F5801CBCF5001FC0F2A9804FEA115C18
:1055B00021EA0C510CF1FD0C41F480115FEA5C0C06
:1055C0000CF5C07C01D34000494130A4890241EA76
:1055D000905187028E0E0A0CA45D04FB04F602FBB8
:1055E00006F6C6F14046A4FB0662F60D46EA4226E0
:1055F00006FB06F4A4FB01235242C3F1404338BF2B
:105600005B1EA6FB02420024E6FB0324D20B42EA07
:105610004446A6FB0623A1FB02E2A3FB07E4E3FB4F
:1056200061426442C2F1404E38BFAEF1010EA6FBAA
:1056300004234FF00002E6FB0E32A2FB03463400C7
:10564000E2FB6264A1FB06E6A4FB07E8E4FB6168F9
:105650007642C8F1405838BFA8F10108A2FB06E421
:10566000A3FB08E5E2FB6854A1FB05E6A7FB04E801
:10567000E1FB648618F1200556F10006A809A8F19F
:105680001B08B10908F03F08B8F10A0F40EA86602C
:105690001CD901EB0C51BDE8F08100BFFCF5EEE830
:1056A000E2DDD8D3CFCBC7C3C0BDB9B6B4B1AEACC1
:1056B000A9A7A5A3A19F9D9B9A9896959392908F39
:1056C0008D8C8B898887868584838281A0FB006886
:1056D00000FB01F208EB4208B8EB872807D5341825
:1056E00058EB0104D5D5401C51F10001D1E7341A23
:1056F00078EB0104CDD4401E71F10001C9E75FEAE7
:105700004C0C5FEA9C5C0DD105D34FF0000001F01A
:105710000041BDE8F081BDE8F04170B5FFF7DEFE65
:105720006DDBFFBEBDE8F0414FF00000004970475F
:105730000000F87F10B591EA030F48BF83F00043E3
:105740003FF52AAC841A71EB030C07D212198CF0C6
:10575000004C43EB0C03001B61EB0C01DFF8A4E1F0
:105760004FEA1154A4EB135C1EEA430F18BF9EEAE4
:10577000445F00F0B08023EA6E03524221EA0451F4
:10578000C3EB6E0338BF5B1EDCF1200E25D322FA7B
:105790000CFE10EB0E0043FA0CFE41EB0E01CCF1B7
:1057A000200E03FA0EFE10EB0E0051F10001CCF1B9
:1057B000200E29D412FA0EF201EB0451BDE810407C
:1057C00058BF7047401C1CBFB2F1004F7047002803
:1057D0000CBF491C20F00100704712EB020E43EB96
:1057E000030218BF4FF0010E4EEA4202ACF1200C4A
:1057F000DCF11E0E54D943FA0CFE10EB0E0051F1F1
:10580000FF31CCF11E0ED5D50EF1010E12FA0EFEAF
:10581000404141EB010101EB445C5FEA5C5C10D963
:1058200010EBDE7001EB045138BFBEF1004FBDE854
:10583000104018BF704700280CBF491C20F0010021
:10584000704730D24FEAD42C11F5001124F40064D3
:105850001BD0B1FA81F20B3AA41AA41ED2F1200394
:10586000914030FA03F31943904001EBCC71002CC6
:1058700001EB0451BDE81040A8BF704701F1C041E1
:105880004FF0000001F000417047B0FA80F310FAC9
:1058900003F100D110BDE41A173C4805C90AE4E73A
:1058A00001EB045110BD491001EB0451BDE810405B
:1058B0004FEA300002E04FF0000170474A0008BF95
:1058C0000042F8D0B2F5001F28BF704701F0004138
:1058D0004FF0000070479EEA445F07D011EA5E0F68
:1058E000BDE8104004BF002100207047BDE8104013
:1058F00070B5FFF7F3FD00BF40DFF63E83F00041D7
:10590000104670470000E0FF43004FEAD30C4FEA17
:105910003C0C43401FBF40070CF1605113F0FE4F99
:1059200070471CF0006F03D100200CF0004170475D
:105930000CF0004343EA507010B540EACC0000F090
:105940000EF800BF000000924FEA0001FFF714BEFE
:105950004FF000414FF00000A1F5002170470EF11B
:10596000020E2EF0030E5EF8044B244204D44FEADC
:105970004102B2F17F4F11D84FEA4003B3F17F4F9C
:105980000CD80ED14FEAD07CB2F17F4F0CEB4C0C0F
:105990000CF1020C08BF4CEBD17C04E04FF0080C7A
:1059A00001E04FEAD17C0CEB4C0324FA03F404F041
:1059B0000704B4F1040C06D20EEB840CBDE81040D1
:1059C0004CF0010C6047DFE80CF0070802024FF0D2
:1059D0000040A0F5800010BD0846420018BFD2F17B
:1059E000807288BF00F0004010BD4FF04070E1EEC3
:1059F000100A7047FF2141EAD050C00570470000EF
:105A00000100020001000300010002000100040087
:105A10000100020001000300010002000100050076
:105A20000100020001000300010002000100040067
:105A30000100020001000300010002000100060055
:105A40000100020001000300010002000100040047
:105A50000100020001000300010002000100050036
:105A60000100020001000300010002000100040027
:105A70000100020001000300010002000100070014
:105A80000100020001000300010002000100040007
:105A900001000200010003000100020001000500F6
:105AA00001000200010003000100020001000400E7
:105AB00001000200010003000100020001000600D5
:105AC00001000200010003000100020001000400C7
:105AD00001000200010003000100020001000500B6
